{
  "address": "0x56fC17a65ccFEC6B7ad0aDe9BD9416CB365B9BE8",
  "abi": [
    {
      "inputs": [
        {
          "internalType": "address",
          "name": "_aaveAddressHolder",
          "type": "address"
        },
        {
          "internalType": "address",
          "name": "_uniswapAddressHolder",
          "type": "address"
        }
      ],
      "stateMutability": "nonpayable",
      "type": "constructor"
    },
    {
      "inputs": [],
      "name": "aaveAddressHolder",
      "outputs": [
        {
          "internalType": "contract IAaveAddressHolder",
          "name": "",
          "type": "address"
        }
      ],
      "stateMutability": "view",
      "type": "function"
    },
    {
      "inputs": [
        {
          "internalType": "address",
          "name": "positionManager",
          "type": "address"
        },
        {
          "internalType": "uint256",
          "name": "tokenId",
          "type": "uint256"
        }
      ],
      "name": "depositIfNeeded",
      "outputs": [],
      "stateMutability": "nonpayable",
      "type": "function"
    },
    {
      "inputs": [
        {
          "internalType": "address",
          "name": "token0",
          "type": "address"
        },
        {
          "internalType": "address",
          "name": "token1",
          "type": "address"
        },
        {
          "internalType": "uint24",
          "name": "fee",
          "type": "uint24"
        }
      ],
      "name": "getPoolLiquidity",
      "outputs": [
        {
          "internalType": "uint128",
          "name": "liquidity",
          "type": "uint128"
        }
      ],
      "stateMutability": "view",
      "type": "function"
    },
    {
      "inputs": [
        {
          "internalType": "address",
          "name": "positionManager",
          "type": "address"
        },
        {
          "internalType": "address",
          "name": "token",
          "type": "address"
        },
        {
          "internalType": "uint256",
          "name": "id",
          "type": "uint256"
        }
      ],
      "name": "withdrawIfNeeded",
      "outputs": [],
      "stateMutability": "nonpayable",
      "type": "function"
    }
  ],
  "transactionHash": "0xf8445ec70734f57596356b99a1de26f82f28b2ff8400953b677ab026c3097c2d",
  "args": [
    "0x2b5A4e5493d4a54E717057B127cf0C000C876f9B",
    "0x045857BDEAE7C1c7252d611eB24eB55564198b4C"
  ],
  "numDeployments": 1,
  "solcInputHash": "e37913ab496d937cc6477b2e54359c29",
  "bytecode": "0x60806040523480156200001157600080fd5b506040516200238638038062002386833981016040819052620000349162000083565b600080546001600160a01b039384166001600160a01b03199182161790915560018054929093169116179055620000ba565b80516001600160a01b03811681146200007e57600080fd5b919050565b6000806040838503121562000096578182fd5b620000a18362000066565b9150620000b16020840162000066565b90509250929050565b6122bc80620000ca6000396000f3fe608060405234801561001057600080fd5b506004361061004c5760003560e01c806318d29e31146100515780631d9cde34146100665780631fcc15f2146100795780637eb6f1ff14610097575b600080fd5b61006461005f366004611d5f565b6100b7565b005b610064610074366004611d1f565b61021e565b6100816104fd565b60405161008e91906120e0565b60405180910390f35b6100aa6100a5366004611cd5565b61050c565b60405161008e9190612203565b8181816001600160a01b03166325e8b4bd82306040518363ffffffff1660e01b81526004016100e7929190612220565b60206040518083038186803b1580156100ff57600080fd5b505afa158015610113573d6000803e3d6000fd5b505050506040513d601f19601f820116820180604052508101906101379190611d8a565b61015c5760405162461bcd60e51b815260040161015390612151565b60405180910390fd5b604051630a66796f60e41b81526000906001600160a01b0386169063a66796f09061018d9087903090600401612220565b60006040518083038186803b1580156101a557600080fd5b505afa1580156101b9573d6000803e3d6000fd5b505050506040513d6000823e601f3d908101601f191682016040526101e19190810190611da4565b8060200190518101906101f49190611cb9565b9050600061020185610619565b62ffffff16111561021757610217858583610893565b5050505050565b604051630dc673c160e41b81526000906001600160a01b0385169063dc673c109061024f90869086906004016120a6565b60206040518083038186803b15801561026757600080fd5b505afa15801561027b573d6000803e3d6000fd5b505050506040513d601f19601f8201168201806040525081019061029f9190611f36565b905060006103b882600160009054906101000a90046001600160a01b03166001600160a01b0316635bfccac96040518163ffffffff1660e01b815260040160206040518083038186803b1580156102f557600080fd5b505afa158015610309573d6000803e3d6000fd5b505050506040513d601f19601f8201168201806040525081019061032d9190611cb9565b600160009054906101000a90046001600160a01b03166001600160a01b03166380f5db8c6040518163ffffffff1660e01b815260040160206040518083038186803b15801561037b57600080fd5b505afa15801561038f573d6000803e3d6000fd5b505050506040513d601f19601f820116820180604052508101906103b39190611cb9565b610e91565b6001600160a01b0316633850c7bd6040518163ffffffff1660e01b815260040160e06040518083038186803b1580156103f057600080fd5b505afa158015610404573d6000803e3d6000fd5b505050506040513d601f19601f820116820180604052508101906104289190611ea8565b50505050509150506000806104c284600160009054906101000a90046001600160a01b03166001600160a01b0316635bfccac96040518163ffffffff1660e01b815260040160206040518083038186803b15801561048557600080fd5b505afa158015610499573d6000803e3d6000fd5b505050506040513d601f19601f820116820180604052508101906104bd9190611cb9565b610f3a565b945094505050508160020b8360020b1380156104e357508060020b8360020b125b156104f4576104f487878787611003565b50505050505050565b6000546001600160a01b031681565b600061059f600160009054906101000a90046001600160a01b03166001600160a01b03166380f5db8c6040518163ffffffff1660e01b815260040160206040518083038186803b15801561055f57600080fd5b505afa158015610573573d6000803e3d6000fd5b505050506040513d601f19601f820116820180604052508101906105979190611cb9565b858585611318565b6001600160a01b0316631a6865026040518163ffffffff1660e01b815260040160206040518083038186803b1580156105d757600080fd5b505afa1580156105eb573d6000803e3d6000fd5b505050506040513d601f19601f8201168201806040525081019061060f9190611e5a565b90505b9392505050565b600080600080600080600160009054906101000a90046001600160a01b03166001600160a01b0316635bfccac96040518163ffffffff1660e01b815260040160206040518083038186803b15801561067057600080fd5b505afa158015610684573d6000803e3d6000fd5b505050506040513d601f19601f820116820180604052508101906106a89190611cb9565b6001600160a01b03166399fbab88886040518263ffffffff1660e01b81526004016106d39190612217565b6101806040518083038186803b1580156106ec57600080fd5b505afa158015610700573d6000803e3d6000fd5b505050506040513d601f19601f820116820180604052508101906107249190611f71565b505050505096509650965096509650505060006107c8600160009054906101000a90046001600160a01b03166001600160a01b03166380f5db8c6040518163ffffffff1660e01b815260040160206040518083038186803b15801561078857600080fd5b505afa15801561079c573d6000803e3d6000fd5b505050506040513d601f19601f820116820180604052508101906107c09190611cb9565b878787611318565b90506000816001600160a01b0316633850c7bd6040518163ffffffff1660e01b815260040160e06040518083038186803b15801561080557600080fd5b505afa158015610819573d6000803e3d6000fd5b505050506040513d601f19601f8201168201806040525081019061083d9190611ea8565b50505050509150508260020b8160020b13156108645782810397505050505050505061088e565b8360020b8160020b121561088257909203955061088e945050505050565b60009750505050505050505b919050565b600080600160009054906101000a90046001600160a01b03166001600160a01b0316635bfccac96040518163ffffffff1660e01b815260040160206040518083038186803b1580156108e457600080fd5b505afa1580156108f8573d6000803e3d6000fd5b505050506040513d601f19601f8201168201806040525081019061091c9190611cb9565b6001600160a01b03166399fbab88856040518263ffffffff1660e01b81526004016109479190612217565b6101806040518083038186803b15801561096057600080fd5b505afa158015610974573d6000803e3d6000fd5b505050506040513d601f19601f820116820180604052508101906109989190611f71565b5050505050505050935093505050600080610abe86600160009054906101000a90046001600160a01b03166001600160a01b0316635bfccac96040518163ffffffff1660e01b815260040160206040518083038186803b1580156109fb57600080fd5b505afa158015610a0f573d6000803e3d6000fd5b505050506040513d601f19601f82011682018060405250810190610a339190611cb9565b600160009054906101000a90046001600160a01b03166001600160a01b03166380f5db8c6040518163ffffffff1660e01b815260040160206040518083038186803b158015610a8157600080fd5b505afa158015610a95573d6000803e3d6000fd5b505050506040513d601f19601f82011682018060405250810190610ab99190611cb9565b611337565b604051638e9cd37160e01b815291935091506001600160a01b03881690638e9cd37190610af390899086908690600401612247565b606060405180830381600087803b158015610b0d57600080fd5b505af1158015610b21573d6000803e3d6000fd5b505050506040513d601f19601f82011682018060405250810190610b459190611e74565b505050600080886001600160a01b0316633a483cb08960006040518363ffffffff1660e01b8152600401610b7a929190612237565b6040805180830381600087803b158015610b9357600080fd5b505af1158015610ba7573d6000803e3d6000fd5b505050506040513d601f19601f82011682018060405250810190610bcb9190611f4e565b909250905060008215610c8857876001600160a01b0316876001600160a01b03161415610bf9578201610c88565b896001600160a01b0316639ffccba5888a610c148b8d6113f0565b876040518563ffffffff1660e01b8152600401610c349493929190612078565b602060405180830381600087803b158015610c4e57600080fd5b505af1158015610c62573d6000803e3d6000fd5b505050506040513d601f19601f82011682018060405250810190610c869190611f36565b015b8115610d3e57876001600160a01b0316866001600160a01b03161415610caf578101610d3e565b896001600160a01b0316639ffccba5878a610cca8a8d6113f0565b866040518563ffffffff1660e01b8152600401610cea9493929190612078565b602060405180830381600087803b158015610d0457600080fd5b505af1158015610d18573d6000803e3d6000fd5b505050506040513d601f19601f82011682018060405250810190610d3c9190611f36565b015b60405163eeb149e760e01b81526000906001600160a01b038c169063eeb149e790610d6f908c9086906004016120a6565b6040805180830381600087803b158015610d8857600080fd5b505af1158015610d9c573d6000803e3d6000fd5b505050506040513d601f19601f82011682018060405250810190610dc09190611f4e565b5060405163320f30b360e11b81529091506001600160a01b038c169063641e616690610df4908c9085908f906004016120bf565b600060405180830381600087803b158015610e0e57600080fd5b505af1158015610e22573d6000803e3d6000fd5b50506040516342e892c360e11b81526001600160a01b038e1692506385d125869150610e52908d90600401612217565b600060405180830381600087803b158015610e6c57600080fd5b505af1158015610e80573d6000803e3d6000fd5b505050505050505050505050505050565b600080600080856001600160a01b03166399fbab88886040518263ffffffff1660e01b8152600401610ec39190612217565b6101806040518083038186803b158015610edc57600080fd5b505afa158015610ef0573d6000803e3d6000fd5b505050506040513d601f19601f82011682018060405250810190610f149190611f71565b505050505050509450945094505050610f2f85848484611318565b979650505050505050565b6000806000806000856001600160a01b03166399fbab88886040518263ffffffff1660e01b8152600401610f6e9190612217565b6101806040518083038186803b158015610f8757600080fd5b505afa158015610f9b573d6000803e3d6000fd5b505050506040513d601f19601f82011682018060405250810190610fbf9190611f71565b909192939495969798999a50909192939495969798995090919293509091925090915090505080955081965082975083985084995050505050509295509295909350565b60405163121fb78160e21b81526000906001600160a01b0386169063487ede049061103490879087906004016120a6565b602060405180830381600087803b15801561104e57600080fd5b505af1158015611062573d6000803e3d6000fd5b505050506040513d601f19601f820116820180604052508101906110869190611f36565b905060008060008060006110e287600160009054906101000a90046001600160a01b03166001600160a01b0316635bfccac96040518163ffffffff1660e01b815260040160206040518083038186803b15801561048557600080fd5b9450945094509450945060008a6001600160a01b0316639ffccba58b88878b6040518563ffffffff1660e01b81526004016111209493929190612078565b602060405180830381600087803b15801561113a57600080fd5b505af115801561114e573d6000803e3d6000fd5b505050506040513d601f19601f820116820180604052508101906111729190611f36565b90506000808c6001600160a01b031663a1ef2dbb6040518060e001604052808b6001600160a01b031681526020018a6001600160a01b031681526020018962ffffff168152602001868152602001600081526020018860020b81526020018760020b8152506040518263ffffffff1660e01b81526004016111f3919061219e565b6040805180830381600087803b15801561120c57600080fd5b505af1158015611220573d6000803e3d6000fd5b505050506040513d601f19601f820116820180604052508101906112449190611f4e565b6040516338456f1760e21b815291935091506001600160a01b038e169063e115bc5c90611279908d9086908690600401612247565b600060405180830381600087803b15801561129357600080fd5b505af11580156112a7573d6000803e3d6000fd5b505050508c6001600160a01b031663ef4027858b6040518263ffffffff1660e01b81526004016112d79190612217565b600060405180830381600087803b1580156112f157600080fd5b505af1158015611305573d6000803e3d6000fd5b5050505050505050505050505050505050565b600061132e8561132986868661152b565b611581565b95945050505050565b6000806000806000866001600160a01b03166399fbab88896040518263ffffffff1660e01b815260040161136b9190612217565b6101806040518083038186803b15801561138457600080fd5b505afa158015611398573d6000803e3d6000fd5b505050506040513d601f19601f820116820180604052508101906113bc9190611f71565b5050505097509750975050505050506113e18184846113dc8c8c8c610e91565b611665565b94509450505050935093915050565b60408051608081018252606481526101f46020820152610bb89181019190915261271060608201526000908190815b60048160ff1610156114fc5730637eb6f1ff87878560ff86166004811061144257fe5b602002015161ffff166040518463ffffffff1660e01b815260040161146993929190612050565b60206040518083038186803b15801561148157600080fd5b505afa9250505080156114b1575060408051601f3d908101601f191682019092526114ae91810190611e5a565b60015b6114ba576114f4565b836001600160801b0316816001600160801b031611156114f257809350828260ff16600481106114e657fe5b602002015161ffff1694505b505b60010161141f565b506001600160801b0382166115235760405162461bcd60e51b8152600401610153906120f4565b505092915050565b611533611c38565b826001600160a01b0316846001600160a01b03161115611551579192915b50604080516060810182526001600160a01b03948516815292909316602083015262ffffff169181019190915290565b600081602001516001600160a01b031682600001516001600160a01b0316106115a957600080fd5b50805160208083015160409384015184516001600160a01b0394851681850152939091168385015262ffffff166060808401919091528351808403820181526080840185528051908301206001600160f81b031960a085015294901b6bffffffffffffffffffffffff191660a183015260b58201939093527fe34f199b19b2b4f47f68442619d555527d244f78a3297ea89325f843f87b8b5460d5808301919091528251808303909101815260f5909101909152805191012090565b60008060008390506000816001600160a01b0316633850c7bd6040518163ffffffff1660e01b815260040160e06040518083038186803b1580156116a857600080fd5b505afa1580156116bc573d6000803e3d6000fd5b505050506040513d601f19601f820116820180604052508101906116e09190611ea8565b5050505050509050611704816116f589611714565b6116fe89611714565b8b611a46565b9350935050505b94509492505050565b60008060008360020b1261172b578260020b611733565b8260020b6000035b9050620d89e8811115611771576040805162461bcd60e51b81526020600482015260016024820152601560fa1b604482015290519081900360640190fd5b60006001821661178557600160801b611797565b6ffffcb933bd6fad37aa2d162d1a5940015b70ffffffffffffffffffffffffffffffffff16905060028216156117cb576ffff97272373d413259a46990580e213a0260801c5b60048216156117ea576ffff2e50f5f656932ef12357cf3c7fdcc0260801c5b6008821615611809576fffe5caca7e10e4e61c3624eaa0941cd00260801c5b6010821615611828576fffcb9843d60f6159c9db58835c9266440260801c5b6020821615611847576fff973b41fa98c081472e6896dfb254c00260801c5b6040821615611866576fff2ea16466c96a3843ec78b326b528610260801c5b6080821615611885576ffe5dee046a99a2a811c461f1969c30530260801c5b6101008216156118a5576ffcbe86c7900a88aedcffc83b479aa3a40260801c5b6102008216156118c5576ff987a7253ac413176f2b074cf7815e540260801c5b6104008216156118e5576ff3392b0822b70005940c7a398e4b70f30260801c5b610800821615611905576fe7159475a2c29b7443b29c7fa6e889d90260801c5b611000821615611925576fd097f3bdfd2022b8845ad8f792aa58250260801c5b612000821615611945576fa9f746462d870fdf8a65dc1f90e061e50260801c5b614000821615611965576f70d869a156d2a1b890bb3df62baf32f70260801c5b618000821615611985576f31be135f97d08fd981231505542fcfa60260801c5b620100008216156119a6576f09aa508b5b7a84e1c677de54f3e99bc90260801c5b620200008216156119c6576e5d6af8dedb81196699c329225ee6040260801c5b620400008216156119e5576d2216e584f5fa1ea926041bedfe980260801c5b62080000821615611a02576b048a170391f7dc42444e8fa20260801c5b60008460020b1315611a1d578060001981611a1957fe5b0490505b640100000000810615611a31576001611a34565b60005b60ff16602082901c0192505050919050565b600080836001600160a01b0316856001600160a01b03161115611a67579293925b846001600160a01b0316866001600160a01b031611611a9257611a8b858585611ae1565b915061170b565b836001600160a01b0316866001600160a01b03161015611acb57611ab7868585611ae1565b9150611ac4858785611b4a565b905061170b565b611ad6858585611b4a565b905094509492505050565b6000826001600160a01b0316846001600160a01b03161115611b01579192915b836001600160a01b0316611b3a606060ff16846001600160801b0316901b8686036001600160a01b0316866001600160a01b0316611b89565b81611b4157fe5b04949350505050565b6000826001600160a01b0316846001600160a01b03161115611b6a579192915b61060f826001600160801b03168585036001600160a01b0316600160601b5b6000808060001985870986860292508281109083900303905080611bbf5760008411611bb457600080fd5b508290049050610612565b808411611bcb57600080fd5b6000848688096000868103871696879004966002600389028118808a02820302808a02820302808a02820302808a02820302808a02820302808a02909103029181900381900460010186841190950394909402919094039290920491909117919091029150509392505050565b604080516060810182526000808252602082018190529181019190915290565b805161088e8161225d565b8051801515811461088e57600080fd5b8051600281900b811461088e57600080fd5b80516001600160801b038116811461088e57600080fd5b805161ffff8116811461088e57600080fd5b805161088e81612275565b600060208284031215611cca578081fd5b81516106128161225d565b600080600060608486031215611ce9578182fd5b8335611cf48161225d565b92506020840135611d048161225d565b91506040840135611d1481612275565b809150509250925092565b600080600060608486031215611d33578283fd5b8335611d3e8161225d565b92506020840135611d4e8161225d565b929592945050506040919091013590565b60008060408385031215611d71578182fd5b8235611d7c8161225d565b946020939093013593505050565b600060208284031215611d9b578081fd5b61061282611c63565b60006020808385031215611db6578182fd5b825167ffffffffffffffff80821115611dcd578384fd5b818501915085601f830112611de0578384fd5b815181811115611dec57fe5b604051601f8201601f1916810185018381118282101715611e0957fe5b6040528181528382018501881015611e1f578586fd5b8592505b81831015611e405783830185015181840186015291840191611e23565b81831115610f2f5785858383010152979650505050505050565b600060208284031215611e6b578081fd5b61061282611c85565b600080600060608486031215611e88578283fd5b611e9184611c85565b925060208401519150604084015190509250925092565b600080600080600080600060e0888a031215611ec2578283fd5b8751611ecd8161225d565b9650611edb60208901611c73565b9550611ee960408901611c9c565b9450611ef760608901611c9c565b9350611f0560808901611c9c565b925060a088015160ff81168114611f1a578283fd5b9150611f2860c08901611c63565b905092959891949750929550565b600060208284031215611f47578081fd5b5051919050565b60008060408385031215611f60578182fd5b505080516020909101519092909150565b6000806000806000806000806000806000806101808d8f031215611f93578586fd5b8c516bffffffffffffffffffffffff81168114611fae578687fd5b9b50611fbc60208e01611c58565b9a50611fca60408e01611c58565b9950611fd860608e01611c58565b9850611fe660808e01611cae565b9750611ff460a08e01611c73565b965061200260c08e01611c73565b955061201060e08e01611c85565b94506101008d015193506101208d0151925061202f6101408e01611c85565b915061203e6101608e01611c85565b90509295989b509295989b509295989b565b6001600160a01b03938416815291909216602082015262ffffff909116604082015260600190565b6001600160a01b03948516815292909316602083015262ffffff166040820152606081019190915260800190565b6001600160a01b03929092168252602082015260400190565b6001600160a01b039390931683526020830191909152604082015260600190565b6001600160a01b0391909116815260200190565b6020808252603b908201527f416176654d6f64756c653a3a5f66696e64426573744665653a204e6f20706f6f60408201527f6c20666f756e642077697468206465736972656420746f6b656e730000000000606082015260800190565b6020808252602d908201527f416176654d6f64756c653a3a6163746976654d6f64756c653a204d6f64756c6560408201526c1034b99034b730b1ba34bb329760991b606082015260800190565b600060e08201905060018060a01b038084511683528060208501511660208401525062ffffff6040840151166040830152606083015160608301526080830151608083015260a083015160020b60a083015260c083015160020b60c083015292915050565b6001600160801b0391909116815260200190565b90815260200190565b9182526001600160a01b0316602082015260400190565b9182521515602082015260400190565b9283526020830191909152604082015260600190565b6001600160a01b038116811461227257600080fd5b50565b62ffffff8116811461227257600080fdfea2646970667358221220277c5311d241175b6645b2701dda798278b2a25c6f93174cea7917cf98c963a064736f6c63430007060033",
  "devdoc": {
    "kind": "dev",
    "methods": {
      "depositIfNeeded(address,uint256)": {
        "params": {
          "positionManager": "address of the position manager",
          "tokenId": "id of the Uniswap position to deposit"
        }
      },
      "getPoolLiquidity(address,address,uint24)": {
        "params": {
          "fee": "pool fee tier",
          "token0": "address of first token",
          "token1": "address of second token"
        },
        "returns": {
          "liquidity": "of the pool"
        }
      },
      "withdrawIfNeeded(address,address,uint256)": {
        "params": {
          "id": "id of the Aave position to withdraw",
          "positionManager": "address of the position manager",
          "token": "address of the token of Aave position"
        }
      }
    },
    "version": 1
  },
  "userdoc": {
    "kind": "user",
    "methods": {
      "depositIfNeeded(address,uint256)": {
        "notice": "deposit a position in an Aave lending pool"
      },
      "getPoolLiquidity(address,address,uint24)": {
        "notice": "wrapper of getPoolLiquidity to use try/catch statement"
      },
      "withdrawIfNeeded(address,address,uint256)": {
        "notice": "check if withdraw is needed and execute"
      }
    },
    "version": 1
  },
  "storageLayout": {
    "storage": [
      {
        "astId": 8484,
        "contract": "contracts/modules/AaveModule.sol:AaveModule",
        "label": "aaveAddressHolder",
        "offset": 0,
        "slot": "0",
        "type": "t_contract(IAaveAddressHolder)11663"
      },
      {
        "astId": 8486,
        "contract": "contracts/modules/AaveModule.sol:AaveModule",
        "label": "uniswapAddressHolder",
        "offset": 0,
        "slot": "1",
        "type": "t_contract(IUniswapAddressHolder)12460"
      }
    ],
    "types": {
      "t_contract(IAaveAddressHolder)11663": {
        "encoding": "inplace",
        "label": "contract IAaveAddressHolder",
        "numberOfBytes": "20"
      },
      "t_contract(IUniswapAddressHolder)12460": {
        "encoding": "inplace",
        "label": "contract IUniswapAddressHolder",
        "numberOfBytes": "20"
      }
    }
  }
}