{
  "address": "0x1780bCf4103D3F501463AD3414c7f4b654bb7aFd",
  "abi": [
    {
      "anonymous": false,
      "inputs": [
        {
          "indexed": true,
          "internalType": "address",
          "name": "positionManager",
          "type": "address"
        },
        {
          "indexed": false,
          "internalType": "address",
          "name": "token",
          "type": "address"
        },
        {
          "indexed": false,
          "internalType": "uint256",
          "name": "id",
          "type": "uint256"
        },
        {
          "indexed": false,
          "internalType": "uint256",
          "name": "shares",
          "type": "uint256"
        }
      ],
      "name": "DepositedOnAave",
      "type": "event"
    },
    {
      "inputs": [
        {
          "internalType": "address",
          "name": "token",
          "type": "address"
        },
        {
          "internalType": "uint256",
          "name": "amount",
          "type": "uint256"
        }
      ],
      "name": "depositToAave",
      "outputs": [
        {
          "internalType": "uint256",
          "name": "id",
          "type": "uint256"
        },
        {
          "internalType": "uint256",
          "name": "shares",
          "type": "uint256"
        }
      ],
      "stateMutability": "nonpayable",
      "type": "function"
    }
  ],
  "transactionHash": "0xe793b8815844f6173e67df8efeba9c2b1a241af0f5a5bf43d6ccfdcb275786d9",
  "args": [],
  "numDeployments": 1,
  "solcInputHash": "e37913ab496d937cc6477b2e54359c29",
  "bytecode": "0x608060405234801561001057600080fd5b506108e1806100206000396000f3fe608060405234801561001057600080fd5b506004361061002b5760003560e01c8063eeb149e714610030575b600080fd5b61004361003e366004610628565b61005a565b604051610051929190610861565b60405180910390f35b60008060006100676104f3565b60060160009054906101000a90046001600160a01b03166001600160a01b031663d3ae26b36040518163ffffffff1660e01b815260040160206040518083038186803b1580156100b657600080fd5b505afa1580156100ca573d6000803e3d6000fd5b505050506040513d601f19601f820116820180604052508101906100ee9190610605565b6040516335ea6a7560e01b81529091506000906001600160a01b038316906335ea6a759061012090899060040161077b565b6101806040518083038186803b15801561013957600080fd5b505afa15801561014d573d6000803e3d6000fd5b505050506040513d601f19601f820116820180604052508101906101719190610673565b60e001516001600160a01b031614156101a55760405162461bcd60e51b815260040161019c90610810565b60405180910390fd5b6040516335ea6a7560e01b81526000906001600160a01b038316906335ea6a75906101d490899060040161077b565b6101806040518083038186803b1580156101ed57600080fd5b505afa158015610201573d6000803e3d6000fd5b505050506040513d601f19601f820116820180604052508101906102259190610673565b60e0015190506000816001600160a01b0316631da24f3e306040518263ffffffff1660e01b8152600401610259919061077b565b60206040518083038186803b15801561027157600080fd5b505afa158015610285573d6000803e3d6000fd5b505050506040513d601f19601f820116820180604052508101906102a99190610763565b905085876001600160a01b031663dd62ed3e30866040518363ffffffff1660e01b81526004016102da92919061078f565b60206040518083038186803b1580156102f257600080fd5b505afa158015610306573d6000803e3d6000fd5b505050506040513d601f19601f8201168201806040525081019061032a9190610763565b10156103b25760405163095ea7b360e01b81526001600160a01b0388169063095ea7b39061035e9086908a906004016107a9565b602060405180830381600087803b15801561037857600080fd5b505af115801561038c573d6000803e3d6000fd5b505050506040513d601f19601f820116820180604052508101906103b09190610653565b505b60405163e8eda9df60e01b81526001600160a01b0384169063e8eda9df906103e5908a908a9030906000906004016107c2565b600060405180830381600087803b1580156103ff57600080fd5b505af1158015610413573d6000803e3d6000fd5b5050604051630ed1279f60e11b81528392506001600160a01b0385169150631da24f3e9061044590309060040161077b565b60206040518083038186803b15801561045d57600080fd5b505afa158015610471573d6000803e3d6000fd5b505050506040513d601f19601f820116820180604052508101906104959190610763565b0393506104a28785610517565b9450306001600160a01b03167f1d838d5962b01d5e6c2fdbb1c6b1dd63cd5773e58afeb185f209463f0a95cb6a8887876040516104e1939291906107ef565b60405180910390a25050509250929050565b7fd5aa5c52d76b5d2be1bece4b96c91e533fe2611adb0c19cf868dadf921fc13b890565b6000806105226104f3565b6001600160a01b03851660008181526008830160208181526040808420600790960180548552868352908420899055939092529052600290910180548501905580546001810190915591505092915050565b805161057f81610893565b919050565b600060208284031215610595578081fd5b6040516020810181811067ffffffffffffffff821117156105b257fe5b6040529151825250919050565b80516fffffffffffffffffffffffffffffffff8116811461057f57600080fd5b805164ffffffffff8116811461057f57600080fd5b805160ff8116811461057f57600080fd5b600060208284031215610616578081fd5b815161062181610893565b9392505050565b6000806040838503121561063a578081fd5b823561064581610893565b946020939093013593505050565b600060208284031215610664578081fd5b81518015158114610621578182fd5b6000610180808385031215610686578182fd5b61068f8161086f565b905061069b8484610584565b81526106a9602084016105bf565b60208201526106ba604084016105bf565b60408201526106cb606084016105bf565b60608201526106dc608084016105bf565b60808201526106ed60a084016105bf565b60a08201526106fe60c084016105df565b60c082015261070f60e08401610574565b60e0820152610100610722818501610574565b90820152610120610734848201610574565b90820152610140610746848201610574565b908201526101606107588482016105f4565b908201529392505050565b600060208284031215610774578081fd5b5051919050565b6001600160a01b0391909116815260200190565b6001600160a01b0392831681529116602082015260400190565b6001600160a01b03929092168252602082015260400190565b6001600160a01b03948516815260208101939093529216604082015261ffff909116606082015260800190565b6001600160a01b039390931683526020830191909152604082015260600190565b60208082526031908201527f416176654465706f7369743a3a6465706f736974546f416176653a2041617665604082015270103a37b5b2b7103737ba103337bab7321760791b606082015260800190565b918252602082015260400190565b60405181810167ffffffffffffffff8111828210171561088b57fe5b604052919050565b6001600160a01b03811681146108a857600080fd5b5056fea2646970667358221220b7f2fafea78b29354d812a6629ac8fb43ba2d706597487bce0b97a247d13fd1b64736f6c63430007060033",
  "devdoc": {
    "events": {
      "DepositedOnAave(address,address,uint256,uint256)": {
        "params": {
          "id": "aave position id",
          "positionManager": "address of aave positionManager which deposited",
          "shares": "shares emitted",
          "token": "token address"
        }
      }
    },
    "kind": "dev",
    "methods": {
      "depositToAave(address,uint256)": {
        "params": {
          "amount": "amount to deposit",
          "token": "token address"
        },
        "returns": {
          "id": "of the deposited position",
          "shares": "emitted"
        }
      }
    },
    "version": 1
  },
  "userdoc": {
    "events": {
      "DepositedOnAave(address,address,uint256,uint256)": {
        "notice": "emitted when a deposit on aave is made"
      }
    },
    "kind": "user",
    "methods": {
      "depositToAave(address,uint256)": {
        "notice": "deposit to aave some token amount"
      }
    },
    "notice": "action to deposit tokens into aave protocol",
    "version": 1
  },
  "storageLayout": {
    "storage": [],
    "types": null
  }
}