{
  "address": "0x2b5A4e5493d4a54E717057B127cf0C000C876f9B",
  "abi": [
    {
      "inputs": [
        {
          "internalType": "address",
          "name": "_lendingPoolAddress",
          "type": "address"
        }
      ],
      "stateMutability": "nonpayable",
      "type": "constructor"
    },
    {
      "inputs": [],
      "name": "lendingPoolAddress",
      "outputs": [
        {
          "internalType": "address",
          "name": "",
          "type": "address"
        }
      ],
      "stateMutability": "view",
      "type": "function"
    },
    {
      "inputs": [
        {
          "internalType": "address",
          "name": "newAddress",
          "type": "address"
        }
      ],
      "name": "setLendingPoolAddress",
      "outputs": [],
      "stateMutability": "nonpayable",
      "type": "function"
    }
  ],
  "transactionHash": "0xb8961621ecb0f5737dc796222b3ded07a5533d5eb2ca24bdbf55344066fe14cf",
  "args": [
    "0x7d2768dE32b0b80b7a3454c06BdAc94A69DDc7A9"
  ],
  "numDeployments": 1,
  "solcInputHash": "e37913ab496d937cc6477b2e54359c29",
  "bytecode": "0x608060405234801561001057600080fd5b506040516101493803806101498339818101604052602081101561003357600080fd5b5051600080546001600160a01b039092166001600160a01b031990921691909117905560e5806100646000396000f3fe6080604052348015600f57600080fd5b506004361060325760003560e01c8063d3ae26b3146037578063ed3f827a146059575b600080fd5b603d607e565b604080516001600160a01b039092168252519081900360200190f35b607c60048036036020811015606d57600080fd5b50356001600160a01b0316608d565b005b6000546001600160a01b031681565b600080546001600160a01b0319166001600160a01b039290921691909117905556fea2646970667358221220e5bff1241586035cfbb5130e19b6f5d9e2f7feaa3ea4ee7a5167ed94ee2c8b1964736f6c63430007060033",
  "devdoc": {
    "kind": "dev",
    "methods": {
      "setLendingPoolAddress(address)": {
        "params": {
          "newAddress": "The address of the lending pool from aave"
        }
      }
    },
    "stateVariables": {
      "lendingPoolAddress": {
        "return": "address The address of the lending pool from aave"
      }
    },
    "version": 1
  },
  "userdoc": {
    "kind": "user",
    "methods": {
      "lendingPoolAddress()": {
        "notice": "default getter for lendingPoolAddress"
      },
      "setLendingPoolAddress(address)": {
        "notice": "Set the address of the lending pool from aave"
      }
    },
    "version": 1
  },
  "storageLayout": {
    "storage": [
      {
        "astId": 10204,
        "contract": "contracts/utils/AaveAddressHolder.sol:AaveAddressHolder",
        "label": "lendingPoolAddress",
        "offset": 0,
        "slot": "0",
        "type": "t_address"
      }
    ],
    "types": {
      "t_address": {
        "encoding": "inplace",
        "label": "address",
        "numberOfBytes": "20"
      }
    }
  }
}