{
  "address": "0x2Dd78Fd9B8F40659Af32eF98555B8b31bC97A351",
  "abi": [
    {
      "inputs": [
        {
          "internalType": "address",
          "name": "_addressHolder",
          "type": "address"
        }
      ],
      "stateMutability": "nonpayable",
      "type": "constructor"
    },
    {
      "inputs": [
        {
          "internalType": "contract IPositionManager",
          "name": "positionManager",
          "type": "address"
        },
        {
          "internalType": "uint256",
          "name": "tokenId",
          "type": "uint256"
        }
      ],
      "name": "autoCompoundFees",
      "outputs": [],
      "stateMutability": "nonpayable",
      "type": "function"
    }
  ],
  "transactionHash": "0x56c425dc8be4fab93431bc9bbf4b19a5c3b83695b341b16e8e1afc799c4ff97c",
  "args": [
    "0x045857BDEAE7C1c7252d611eB24eB55564198b4C"
  ],
  "numDeployments": 1,
  "solcInputHash": "e37913ab496d937cc6477b2e54359c29",
  "bytecode": "0x608060405234801561001057600080fd5b5060405161130538038061130583398101604081905261002f91610054565b600080546001600160a01b0319166001600160a01b0392909216919091179055610082565b600060208284031215610065578081fd5b81516001600160a01b038116811461007b578182fd5b9392505050565b611274806100916000396000f3fe608060405234801561001057600080fd5b506004361061002b5760003560e01c8063fd0b070814610030575b600080fd5b61004361003e36600461100d565b610045565b005b6040516325e8b4bd60e01b81526001600160a01b038316906325e8b4bd9061007390849030906004016111e9565b60206040518083038186803b15801561008b57600080fd5b505afa15801561009f573d6000803e3d6000fd5b505050506040513d601f19601f820116820180604052508101906100c39190610f3c565b156101c4576100d282826101c8565b156101c457600080836001600160a01b0316633a483cb08460006040518363ffffffff1660e01b8152600401610109929190611200565b6040805180830381600087803b15801561012257600080fd5b505af1158015610136573d6000803e3d6000fd5b505050506040513d601f19601f8201168201806040525081019061015a91906110de565b6040516338456f1760e21b815291935091506001600160a01b0385169063e115bc5c9061018f90869086908690600401611210565b600060405180830381600087803b1580156101a957600080fd5b505af11580156101bd573d6000803e3d6000fd5b5050505050505b5050565b6000806000846001600160a01b03166384d92797856040518263ffffffff1660e01b81526004016101f991906111e0565b6040805180830381600087803b15801561021257600080fd5b505af1158015610226573d6000803e3d6000fd5b505050506040513d601f19601f8201168201806040525081019061024a91906110de565b915091506000806103628660008054906101000a90046001600160a01b03166001600160a01b0316635bfccac96040518163ffffffff1660e01b815260040160206040518083038186803b1580156102a157600080fd5b505afa1580156102b5573d6000803e3d6000fd5b505050506040513d601f19601f820116820180604052508101906102d99190610f20565b60008054906101000a90046001600160a01b03166001600160a01b03166380f5db8c6040518163ffffffff1660e01b815260040160206040518083038186803b15801561032557600080fd5b505afa158015610339573d6000803e3d6000fd5b505050506040513d601f19601f8201168201806040525081019061035d9190610f20565b6105f6565b915091506000876001600160a01b031663a66796f088306040518363ffffffff1660e01b81526004016103969291906111e9565b60006040518083038186803b1580156103ae57600080fd5b505afa1580156103c2573d6000803e3d6000fd5b505050506040513d6000823e601f3d908101601f191682016040526103ea9190810190610f56565b8060200190518101906103fd91906110c6565b905060006105128860008054906101000a90046001600160a01b03166001600160a01b0316635bfccac96040518163ffffffff1660e01b815260040160206040518083038186803b15801561045157600080fd5b505afa158015610465573d6000803e3d6000fd5b505050506040513d601f19601f820116820180604052508101906104899190610f20565b60008054906101000a90046001600160a01b03166001600160a01b03166380f5db8c6040518163ffffffff1660e01b815260040160206040518083038186803b1580156104d557600080fd5b505afa1580156104e9573d6000803e3d6000fd5b505050506040513d601f19601f8201168201806040525081019061050d9190610f20565b6106af565b6001600160a01b0316633850c7bd6040518163ffffffff1660e01b815260040160e06040518083038186803b15801561054a57600080fd5b505afa15801561055e573d6000803e3d6000fd5b505050506040513d601f19601f820116820180604052508101906105829190611038565b505050505050905081816001600160a01b031684600160601b02816105a357fe5b04600160601b6001600160a01b0384168702040102816001600160a01b031686600160601b02816105d057fe5b04600160601b6001600160a01b0384168902040160640211965050505050505092915050565b6000806000806000866001600160a01b03166399fbab88896040518263ffffffff1660e01b815260040161062a91906111e0565b6101806040518083038186803b15801561064357600080fd5b505afa158015610657573d6000803e3d6000fd5b505050506040513d601f19601f8201168201806040525081019061067b9190611101565b5050505097509750975050505050506106a081848461069b8c8c8c6106af565b61075a565b94509450505050935093915050565b600080600080856001600160a01b03166399fbab88886040518263ffffffff1660e01b81526004016106e191906111e0565b6101806040518083038186803b1580156106fa57600080fd5b505afa15801561070e573d6000803e3d6000fd5b505050506040513d601f19601f820116820180604052508101906107329190611101565b50505050505050945094509450505061074d85848484610809565b93505050505b9392505050565b60008060008390506000816001600160a01b0316633850c7bd6040518163ffffffff1660e01b815260040160e06040518083038186803b15801561079d57600080fd5b505afa1580156107b1573d6000803e3d6000fd5b505050506040513d601f19601f820116820180604052508101906107d59190611038565b50505050505090506107f9816107ea89610828565b6107f389610828565b8b610b5a565b9350935050505b94509492505050565b600061081f8561081a868686610bf5565b610c4b565b95945050505050565b60008060008360020b1261083f578260020b610847565b8260020b6000035b9050620d89e8811115610885576040805162461bcd60e51b81526020600482015260016024820152601560fa1b604482015290519081900360640190fd5b60006001821661089957600160801b6108ab565b6ffffcb933bd6fad37aa2d162d1a5940015b70ffffffffffffffffffffffffffffffffff16905060028216156108df576ffff97272373d413259a46990580e213a0260801c5b60048216156108fe576ffff2e50f5f656932ef12357cf3c7fdcc0260801c5b600882161561091d576fffe5caca7e10e4e61c3624eaa0941cd00260801c5b601082161561093c576fffcb9843d60f6159c9db58835c9266440260801c5b602082161561095b576fff973b41fa98c081472e6896dfb254c00260801c5b604082161561097a576fff2ea16466c96a3843ec78b326b528610260801c5b6080821615610999576ffe5dee046a99a2a811c461f1969c30530260801c5b6101008216156109b9576ffcbe86c7900a88aedcffc83b479aa3a40260801c5b6102008216156109d9576ff987a7253ac413176f2b074cf7815e540260801c5b6104008216156109f9576ff3392b0822b70005940c7a398e4b70f30260801c5b610800821615610a19576fe7159475a2c29b7443b29c7fa6e889d90260801c5b611000821615610a39576fd097f3bdfd2022b8845ad8f792aa58250260801c5b612000821615610a59576fa9f746462d870fdf8a65dc1f90e061e50260801c5b614000821615610a79576f70d869a156d2a1b890bb3df62baf32f70260801c5b618000821615610a99576f31be135f97d08fd981231505542fcfa60260801c5b62010000821615610aba576f09aa508b5b7a84e1c677de54f3e99bc90260801c5b62020000821615610ada576e5d6af8dedb81196699c329225ee6040260801c5b62040000821615610af9576d2216e584f5fa1ea926041bedfe980260801c5b62080000821615610b16576b048a170391f7dc42444e8fa20260801c5b60008460020b1315610b31578060001981610b2d57fe5b0490505b640100000000810615610b45576001610b48565b60005b60ff16602082901c0192505050919050565b600080836001600160a01b0316856001600160a01b03161115610b7b579293925b846001600160a01b0316866001600160a01b031611610ba657610b9f858585610d2f565b9150610800565b836001600160a01b0316866001600160a01b03161015610bdf57610bcb868585610d2f565b9150610bd8858785610d98565b9050610800565b610bea858585610d98565b905094509492505050565b610bfd610e92565b826001600160a01b0316846001600160a01b03161115610c1b579192915b50604080516060810182526001600160a01b03948516815292909316602083015262ffffff169181019190915290565b600081602001516001600160a01b031682600001516001600160a01b031610610c7357600080fd5b50805160208083015160409384015184516001600160a01b0394851681850152939091168385015262ffffff166060808401919091528351808403820181526080840185528051908301206001600160f81b031960a085015294901b6bffffffffffffffffffffffff191660a183015260b58201939093527fe34f199b19b2b4f47f68442619d555527d244f78a3297ea89325f843f87b8b5460d5808301919091528251808303909101815260f5909101909152805191012090565b6000826001600160a01b0316846001600160a01b03161115610d4f579192915b836001600160a01b0316610d88606060ff16846001600160801b0316901b8686036001600160a01b0316866001600160a01b0316610de3565b81610d8f57fe5b04949350505050565b6000826001600160a01b0316846001600160a01b03161115610db8579192915b610ddb826001600160801b03168585036001600160a01b0316600160601b610de3565b949350505050565b6000808060001985870986860292508281109083900303905080610e195760008411610e0e57600080fd5b508290049050610753565b808411610e2557600080fd5b6000848688096000868103871696879004966002600389028118808a02820302808a02820302808a02820302808a02820302808a02820302808a02909103029181900381900460010186841190950394909402919094039290920491909117919091029150509392505050565b604080516060810182526000808252602082018190529181019190915290565b8051610ebd81611226565b919050565b80518015158114610ebd57600080fd5b8051600281900b8114610ebd57600080fd5b80516001600160801b0381168114610ebd57600080fd5b805161ffff81168114610ebd57600080fd5b805162ffffff81168114610ebd57600080fd5b600060208284031215610f31578081fd5b815161075381611226565b600060208284031215610f4d578081fd5b61075382610ec2565b60006020808385031215610f68578182fd5b825167ffffffffffffffff80821115610f7f578384fd5b818501915085601f830112610f92578384fd5b815181811115610f9e57fe5b604051601f8201601f1916810185018381118282101715610fbb57fe5b6040528181528382018501881015610fd1578586fd5b8592505b81831015610ff25783830185015181840186015291840191610fd5565b8183111561100257858583830101525b979650505050505050565b6000806040838503121561101f578081fd5b823561102a81611226565b946020939093013593505050565b600080600080600080600060e0888a031215611052578283fd5b875161105d81611226565b965061106b60208901610ed2565b955061107960408901610efb565b945061108760608901610efb565b935061109560808901610efb565b925060a088015160ff811681146110aa578283fd5b91506110b860c08901610ec2565b905092959891949750929550565b6000602082840312156110d7578081fd5b5051919050565b600080604083850312156110f0578182fd5b505080516020909101519092909150565b6000806000806000806000806000806000806101808d8f031215611123578485fd5b8c516bffffffffffffffffffffffff8116811461113e578586fd5b9b5061114c60208e01610eb2565b9a5061115a60408e01610eb2565b995061116860608e01610eb2565b985061117660808e01610f0d565b975061118460a08e01610ed2565b965061119260c08e01610ed2565b95506111a060e08e01610ee4565b94506101008d015193506101208d015192506111bf6101408e01610ee4565b91506111ce6101608e01610ee4565b90509295989b509295989b509295989b565b90815260200190565b9182526001600160a01b0316602082015260400190565b9182521515602082015260400190565b9283526020830191909152604082015260600190565b6001600160a01b038116811461123b57600080fd5b5056fea2646970667358221220c0228dacbc07be7d34e5b09d03de6756b8d178b99841a26fe80d430a6dcd5a7264736f6c63430007060033",
  "devdoc": {
    "kind": "dev",
    "methods": {
      "autoCompoundFees(address,uint256)": {
        "params": {
          "positionManager": "address of the position manager",
          "tokenId": "id of the token to autocompound"
        }
      },
      "constructor": {
        "params": {
          "_addressHolder": "the address of the uniswap address holder contract"
        }
      }
    },
    "version": 1
  },
  "userdoc": {
    "kind": "user",
    "methods": {
      "autoCompoundFees(address,uint256)": {
        "notice": "executes our recipe for autocompounding"
      },
      "constructor": {
        "notice": "constructor of autoCompoundModule"
      }
    },
    "version": 1
  },
  "storageLayout": {
    "storage": [
      {
        "astId": 9089,
        "contract": "contracts/modules/AutoCompoundModule.sol:AutoCompoundModule",
        "label": "addressHolder",
        "offset": 0,
        "slot": "0",
        "type": "t_contract(IUniswapAddressHolder)12460"
      }
    ],
    "types": {
      "t_contract(IUniswapAddressHolder)12460": {
        "encoding": "inplace",
        "label": "contract IUniswapAddressHolder",
        "numberOfBytes": "20"
      }
    }
  }
}