{
  "address": "0xeF31027350Be2c7439C1b0BE022d49421488b72C",
  "abi": [
    {
      "anonymous": false,
      "inputs": [
        {
          "indexed": true,
          "internalType": "address",
          "name": "positionManager",
          "type": "address"
        },
        {
          "indexed": false,
          "internalType": "uint256",
          "name": "tokenId",
          "type": "uint256"
        }
      ],
      "name": "PositionClosed",
      "type": "event"
    },
    {
      "inputs": [
        {
          "internalType": "uint256",
          "name": "tokenId",
          "type": "uint256"
        },
        {
          "internalType": "bool",
          "name": "returnTokenToUser",
          "type": "bool"
        }
      ],
      "name": "closePosition",
      "outputs": [
        {
          "internalType": "uint256",
          "name": "",
          "type": "uint256"
        },
        {
          "internalType": "uint256",
          "name": "",
          "type": "uint256"
        },
        {
          "internalType": "uint256",
          "name": "",
          "type": "uint256"
        }
      ],
      "stateMutability": "nonpayable",
      "type": "function"
    }
  ],
  "transactionHash": "0x3144068266d234f5939de0ab0de9016f612334cdc47f4c135e321a10384cb0b4",
  "args": [],
  "numDeployments": 1,
  "solcInputHash": "e37913ab496d937cc6477b2e54359c29",
  "bytecode": "0x608060405234801561001057600080fd5b50610755806100206000396000f3fe608060405234801561001057600080fd5b506004361061002b5760003560e01c8063e4a60d4514610030575b600080fd5b61004361003e366004610545565b61005b565b60405161005293929190610709565b60405180910390f35b6000806000806100696104a8565b905060008160030160009054906101000a90046001600160a01b03166001600160a01b0316635bfccac96040518163ffffffff1660e01b815260040160206040518083038186803b1580156100bd57600080fd5b505afa1580156100d1573d6000803e3d6000fd5b505050506040513d601f19601f820116820180604052508101906100f59190610524565b90506000816001600160a01b03166399fbab88896040518263ffffffff1660e01b81526004016101259190610700565b6101806040518083038186803b15801561013e57600080fd5b505afa158015610152573d6000803e3d6000fd5b505050506040513d601f19601f82011682018060405250810190610176919061059b565b5050505097505050505050505060006040518060a001604052808a8152602001836001600160801b031681526020016000815260200160008152602001426078018152509050826001600160a01b0316630c49ccbe826040518263ffffffff1660e01b81526004016101e891906106bd565b6040805180830381600087803b15801561020157600080fd5b505af1158015610215573d6000803e3d6000fd5b505050506040513d601f19601f820116820180604052508101906102399190610578565b5050600080846001600160a01b03166399fbab888c6040518263ffffffff1660e01b815260040161026a9190610700565b6101806040518083038186803b15801561028357600080fd5b505afa158015610297573d6000803e3d6000fd5b505050506040513d601f19601f820116820180604052508101906102bb919061059b565b6001600160801b03169b506001600160801b03169b5050505050505050505050600060405180608001604052808d81526020018c6102f95730610308565b60048901546001600160a01b03165b6001600160a01b0390811682526001600160801b0360208301819052604092830152905163fc6f786560e01b815291925087169063fc6f78659061035090849060040161067a565b6040805180830381600087803b15801561036957600080fd5b505af115801561037d573d6000803e3d6000fd5b505050506040513d601f19601f820116820180604052508101906103a19190610578565b5050604051630852cd8d60e31b81526001600160a01b038716906342966c68906103cf908f90600401610700565b600060405180830381600087803b1580156103e957600080fd5b505af11580156103fd573d6000803e3d6000fd5b50506040516342e892c360e11b81523092506385d125869150610424908f90600401610700565b600060405180830381600087803b15801561043e57600080fd5b505af1158015610452573d6000803e3d6000fd5b50505050306001600160a01b03167fa9e0cdf27a7965d21573ebb808fbcb2c2a1cfd656e1ecf3f82549437b47406778d60405161048f9190610700565b60405180910390a250999a909998509650505050505050565b7fd5aa5c52d76b5d2be1bece4b96c91e533fe2611adb0c19cf868dadf921fc13b890565b80516001600160a01b03811681146104e357600080fd5b919050565b8051600281900b81146104e357600080fd5b80516001600160801b03811681146104e357600080fd5b805162ffffff811681146104e357600080fd5b600060208284031215610535578081fd5b61053e826104cc565b9392505050565b60008060408385031215610557578081fd5b823591506020830135801515811461056d578182fd5b809150509250929050565b6000806040838503121561058a578182fd5b505080516020909101519092909150565b6000806000806000806000806000806000806101808d8f0312156105bd578788fd5b8c516bffffffffffffffffffffffff811681146105d8578889fd5b9b506105e660208e016104cc565b9a506105f460408e016104cc565b995061060260608e016104cc565b985061061060808e01610511565b975061061e60a08e016104e8565b965061062c60c08e016104e8565b955061063a60e08e016104fa565b94506101008d015193506101208d015192506106596101408e016104fa565b91506106686101608e016104fa565b90509295989b509295989b509295989b565b815181526020808301516001600160a01b0316908201526040808301516001600160801b0390811691830191909152606092830151169181019190915260800190565b600060a082019050825182526001600160801b03602084015116602083015260408301516040830152606083015160608301526080830151608083015292915050565b90815260200190565b928352602083019190915260408201526060019056fea2646970667358221220f44650eeb9da40b3f765b3cef6ee095ca4c55e8e2c1398c8a8d8ec1dedf17cf964736f6c63430007060033",
  "devdoc": {
    "events": {
      "PositionClosed(address,uint256)": {
        "params": {
          "positionManager": "address of PositionManager",
          "tokenId": "Id of the closed token"
        }
      }
    },
    "kind": "dev",
    "methods": {
      "closePosition(uint256,bool)": {
        "params": {
          "returnTokenToUser": "true if the token should be returned to the user",
          "tokenId": "id of the token to close"
        },
        "returns": {
          "_0": "uint256 ID of the closed token",
          "_1": "uint256 amount of token0 returned",
          "_2": "uint256 amount of token1 returned"
        }
      }
    },
    "version": 1
  },
  "userdoc": {
    "events": {
      "PositionClosed(address,uint256)": {
        "notice": "emitted when a UniswapNFT position is closed"
      }
    },
    "kind": "user",
    "methods": {
      "closePosition(uint256,bool)": {
        "notice": "close a UniswapV3 position NFT"
      }
    },
    "version": 1
  },
  "storageLayout": {
    "storage": [],
    "types": null
  }
}