{
  "address": "0xD6b040736e948621c5b6E0a494473c47a6113eA8",
  "abi": [
    {
      "inputs": [
        {
          "internalType": "address",
          "name": "_uniswapAddressHolder",
          "type": "address"
        },
        {
          "internalType": "address",
          "name": "_positionManagerFactory",
          "type": "address"
        }
      ],
      "stateMutability": "nonpayable",
      "type": "constructor"
    },
    {
      "anonymous": false,
      "inputs": [
        {
          "indexed": true,
          "internalType": "address",
          "name": "positionManager",
          "type": "address"
        },
        {
          "indexed": false,
          "internalType": "address",
          "name": "from",
          "type": "address"
        },
        {
          "indexed": false,
          "internalType": "uint256",
          "name": "tokenId",
          "type": "uint256"
        }
      ],
      "name": "PositionDeposited",
      "type": "event"
    },
    {
      "inputs": [
        {
          "internalType": "uint256[]",
          "name": "tokenIds",
          "type": "uint256[]"
        }
      ],
      "name": "depositUniNft",
      "outputs": [],
      "stateMutability": "nonpayable",
      "type": "function"
    },
    {
      "inputs": [
        {
          "internalType": "address",
          "name": "token0",
          "type": "address"
        },
        {
          "internalType": "address",
          "name": "token1",
          "type": "address"
        },
        {
          "internalType": "uint24",
          "name": "fee",
          "type": "uint24"
        },
        {
          "internalType": "int24",
          "name": "tickLower",
          "type": "int24"
        },
        {
          "internalType": "int24",
          "name": "tickUpper",
          "type": "int24"
        },
        {
          "internalType": "uint256",
          "name": "amount0Desired",
          "type": "uint256"
        },
        {
          "internalType": "uint256",
          "name": "amount1Desired",
          "type": "uint256"
        }
      ],
      "name": "mintAndDeposit",
      "outputs": [
        {
          "internalType": "uint256",
          "name": "tokenId",
          "type": "uint256"
        }
      ],
      "stateMutability": "nonpayable",
      "type": "function"
    },
    {
      "inputs": [
        {
          "internalType": "address",
          "name": "tokenIn",
          "type": "address"
        },
        {
          "internalType": "uint256",
          "name": "amountIn",
          "type": "uint256"
        },
        {
          "internalType": "address",
          "name": "token0",
          "type": "address"
        },
        {
          "internalType": "address",
          "name": "token1",
          "type": "address"
        },
        {
          "internalType": "int24",
          "name": "tickLower",
          "type": "int24"
        },
        {
          "internalType": "int24",
          "name": "tickUpper",
          "type": "int24"
        },
        {
          "internalType": "uint24",
          "name": "fee",
          "type": "uint24"
        }
      ],
      "name": "zapInUniNft",
      "outputs": [
        {
          "internalType": "uint256",
          "name": "tokenId",
          "type": "uint256"
        }
      ],
      "stateMutability": "nonpayable",
      "type": "function"
    }
  ],
  "transactionHash": "0x52e62e411c535b316dab4a87a66366d67a28bad8fd3ce92c85da94afadadbd10",
  "args": [
    "0xC36442b4a4522E871399CD717aBDD847Ab11FE88",
    "0x821f3361D454cc98b7555221A06Be563a7E2E0A6"
  ],
  "numDeployments": 1,
  "solcInputHash": "e37913ab496d937cc6477b2e54359c29",
  "bytecode": "0x608060405234801561001057600080fd5b50604051610b64380380610b6483398101604081905261002f9161007c565b600080546001600160a01b039384166001600160a01b031991821617909155600180549290931691161790556100ae565b80516001600160a01b038116811461007757600080fd5b919050565b6000806040838503121561008e578182fd5b61009783610060565b91506100a560208401610060565b90509250929050565b610aa7806100bd6000396000f3fe608060405234801561001057600080fd5b50600436106100415760003560e01c80632a44a902146100465780638e8082901461006f578063b1ee34a914610082575b600080fd5b6100596100543660046107b9565b610097565b6040516100669190610a50565b60405180910390f35b61005961007d36600461073e565b610216565b61009561009036600461083d565b610481565b005b60015460405163c81e0f9160e01b815260009182916001600160a01b039091169063c81e0f91906100cc903390600401610911565b60206040518083038186803b1580156100e457600080fd5b505afa1580156100f8573d6000803e3d6000fd5b505050506040513d601f19601f8201168201806040525081019061011c919061071b565b604051636c6503cd60e01b81529091506001600160a01b03821690636c6503cd90610157908c908c908c908c908c908c908c906004016109a1565b602060405180830381600087803b15801561017157600080fd5b505af1158015610185573d6000803e3d6000fd5b505050506040513d601f19601f820116820180604052508101906101a991906108cc565b60405163ef40278560e01b81529092506001600160a01b0382169063ef402785906101d8908590600401610a50565b600060405180830381600087803b1580156101f257600080fd5b505af1158015610206573d6000803e3d6000fd5b5050505050979650505050505050565b60015460405163c81e0f9160e01b815260009182916001600160a01b039091169063c81e0f919061024b903390600401610911565b60206040518083038186803b15801561026357600080fd5b505afa158015610277573d6000803e3d6000fd5b505050506040513d601f19601f8201168201806040525081019061029b919061071b565b6040516323b872dd60e01b81529091506001600160a01b038a16906323b872dd906102ce90339085908990600401610925565b602060405180830381600087803b1580156102e857600080fd5b505af11580156102fc573d6000803e3d6000fd5b505050506040513d601f19601f8201168201806040525081019061032091906108ac565b506040516323b872dd60e01b81526001600160a01b038916906323b872dd9061035190339085908890600401610925565b602060405180830381600087803b15801561036b57600080fd5b505af115801561037f573d6000803e3d6000fd5b505050506040513d601f19601f820116820180604052508101906103a391906108ac565b50806001600160a01b031663c5174d1d6040518060e001604052808c6001600160a01b031681526020018b6001600160a01b031681526020018a62ffffff1681526020018960020b81526020018860020b8152602001878152602001868152506040518263ffffffff1660e01b815260040161041f91906109eb565b606060405180830381600087803b15801561043957600080fd5b505af115801561044d573d6000803e3d6000fd5b505050506040513d601f19601f8201168201806040525081019061047191906108e4565b50909a9950505050505050505050565b60015460405163c81e0f9160e01b81526000916001600160a01b03169063c81e0f91906104b2903390600401610911565b60206040518083038186803b1580156104ca57600080fd5b505afa1580156104de573d6000803e3d6000fd5b505050506040513d601f19601f82011682018060405250810190610502919061071b565b905060005b63ffffffff81168311156106eb5760008054906101000a90046001600160a01b03166001600160a01b0316635bfccac96040518163ffffffff1660e01b815260040160206040518083038186803b15801561056157600080fd5b505afa158015610575573d6000803e3d6000fd5b505050506040513d601f19601f82011682018060405250810190610599919061071b565b6001600160a01b031663b88d4fde338487878663ffffffff168181106105bb57fe5b905060200201356040518463ffffffff1660e01b81526004016105e093929190610949565b600060405180830381600087803b1580156105fa57600080fd5b505af115801561060e573d6000803e3d6000fd5b50505050816001600160a01b031663ef40278585858463ffffffff1681811061063357fe5b905060200201356040518263ffffffff1660e01b81526004016106569190610a50565b600060405180830381600087803b15801561067057600080fd5b505af1158015610684573d6000803e3d6000fd5b50505050816001600160a01b03167f53f5c75e8acf59b0190c07dceb59d645c3221011be879ad62f3eb4d28e4a085a3386868563ffffffff168181106106c657fe5b905060200201356040516106db929190610988565b60405180910390a2600101610507565b50505050565b8035600281900b811461070357600080fd5b919050565b803562ffffff8116811461070357600080fd5b60006020828403121561072c578081fd5b815161073781610a59565b9392505050565b600080600080600080600060e0888a031215610758578283fd5b873561076381610a59565b9650602088013561077381610a59565b955061078160408901610708565b945061078f606089016106f1565b935061079d608089016106f1565b925060a0880135915060c0880135905092959891949750929550565b600080600080600080600060e0888a0312156107d3578283fd5b87356107de81610a59565b96506020880135955060408801356107f581610a59565b9450606088013561080581610a59565b9350610813608089016106f1565b925061082160a089016106f1565b915061082f60c08901610708565b905092959891949750929550565b6000806020838503121561084f578182fd5b823567ffffffffffffffff80821115610866578384fd5b818501915085601f830112610879578384fd5b813581811115610887578485fd5b866020808302850101111561089a578485fd5b60209290920196919550909350505050565b6000602082840312156108bd578081fd5b81518015158114610737578182fd5b6000602082840312156108dd578081fd5b5051919050565b6000806000606084860312156108f8578283fd5b8351925060208401519150604084015190509250925092565b6001600160a01b0391909116815260200190565b6001600160a01b039384168152919092166020820152604081019190915260600190565b6001600160a01b03938416815291909216602082015260408101919091526080606082018190526003908201526203078360ec1b60a082015260c00190565b6001600160a01b03929092168252602082015260400190565b6001600160a01b03978816815260208101969096529386166040860152919094166060840152600293840b608084015290920b60a082015262ffffff90911660c082015260e00190565b600060e08201905060018060a01b038084511683528060208501511660208401525062ffffff6040840151166040830152606083015160020b6060830152608083015160020b608083015260a083015160a083015260c083015160c083015292915050565b90815260200190565b6001600160a01b0381168114610a6e57600080fd5b5056fea26469706673582212208f979a82c8994e46a459ceea7963fe24b5a99083b2f4f57c26169c6a3646b43064736f6c63430007060033",
  "devdoc": {
    "events": {
      "PositionDeposited(address,address,uint256)": {
        "params": {
          "from": "address of the user",
          "positionManager": "the address of the position manager which recieved the position",
          "tokenId": "ID of the minted NFT"
        }
      }
    },
    "kind": "dev",
    "methods": {
      "depositUniNft(uint256[])": {
        "params": {
          "tokenIds": "IDs of deposited tokens"
        }
      },
      "mintAndDeposit(address,address,uint24,int24,int24,uint256,uint256)": {
        "params": {
          "amount0Desired": "the amount of the first token to be deposited",
          "amount1Desired": "the amount of the second token to be deposited",
          "fee": "fee tier of the pool to be deposited in",
          "tickLower": "the lower bound of the position range",
          "tickUpper": "the upper bound of the position range",
          "token0": "the first token to be deposited",
          "token1": "the second token to be deposited"
        },
        "returns": {
          "tokenId": "the ID of the minted NFT"
        }
      },
      "zapInUniNft(address,uint256,address,address,int24,int24,uint24)": {
        "params": {
          "amountIn": "amount of input token",
          "fee": "fee tier of the pool",
          "tickLower": "lower bound of desired position",
          "tickUpper": "upper bound of desired position",
          "token0": "address token0 of the pool",
          "token1": "address token1 of the pool",
          "tokenIn": "address of input token"
        },
        "returns": {
          "tokenId": "of minted NFT"
        }
      }
    },
    "version": 1
  },
  "userdoc": {
    "events": {
      "PositionDeposited(address,address,uint256)": {
        "notice": "emitted when a position is created"
      }
    },
    "kind": "user",
    "methods": {
      "depositUniNft(uint256[])": {
        "notice": "add uniswap position NFT to the position manager"
      },
      "mintAndDeposit(address,address,uint24,int24,int24,uint256,uint256)": {
        "notice": "mint uniswapV3 NFT and deposit in the position manager"
      },
      "zapInUniNft(address,uint256,address,address,int24,int24,uint24)": {
        "notice": "mints a uni NFT with a single input token, the token in input can be different from the two position tokens"
      }
    },
    "notice": "DepositRecipes allows user to fill their position manager with UniswapV3 positions        by depositing an already minted NFT or by minting directly a new one",
    "version": 1
  },
  "storageLayout": {
    "storage": [
      {
        "astId": 10240,
        "contract": "contracts/utils/DepositRecipes.sol:DepositRecipes",
        "label": "uniswapAddressHolder",
        "offset": 0,
        "slot": "0",
        "type": "t_contract(IUniswapAddressHolder)12460"
      },
      {
        "astId": 10242,
        "contract": "contracts/utils/DepositRecipes.sol:DepositRecipes",
        "label": "positionManagerFactory",
        "offset": 0,
        "slot": "1",
        "type": "t_contract(IPositionManagerFactory)12349"
      }
    ],
    "types": {
      "t_contract(IPositionManagerFactory)12349": {
        "encoding": "inplace",
        "label": "contract IPositionManagerFactory",
        "numberOfBytes": "20"
      },
      "t_contract(IUniswapAddressHolder)12460": {
        "encoding": "inplace",
        "label": "contract IUniswapAddressHolder",
        "numberOfBytes": "20"
      }
    }
  }
}