{
  "address": "0x54B8d8E2455946f2A5B8982283f2359812e815ce",
  "abi": [
    {
      "anonymous": false,
      "inputs": [
        {
          "indexed": true,
          "internalType": "address",
          "name": "positionManager",
          "type": "address"
        },
        {
          "indexed": false,
          "internalType": "uint256",
          "name": "tokenId",
          "type": "uint256"
        }
      ],
      "name": "PositionMinted",
      "type": "event"
    },
    {
      "inputs": [
        {
          "components": [
            {
              "internalType": "address",
              "name": "token0Address",
              "type": "address"
            },
            {
              "internalType": "address",
              "name": "token1Address",
              "type": "address"
            },
            {
              "internalType": "uint24",
              "name": "fee",
              "type": "uint24"
            },
            {
              "internalType": "int24",
              "name": "tickLower",
              "type": "int24"
            },
            {
              "internalType": "int24",
              "name": "tickUpper",
              "type": "int24"
            },
            {
              "internalType": "uint256",
              "name": "amount0Desired",
              "type": "uint256"
            },
            {
              "internalType": "uint256",
              "name": "amount1Desired",
              "type": "uint256"
            }
          ],
          "internalType": "struct IMint.MintInput",
          "name": "inputs",
          "type": "tuple"
        }
      ],
      "name": "mint",
      "outputs": [
        {
          "internalType": "uint256",
          "name": "tokenId",
          "type": "uint256"
        },
        {
          "internalType": "uint256",
          "name": "amount0Deposited",
          "type": "uint256"
        },
        {
          "internalType": "uint256",
          "name": "amount1Deposited",
          "type": "uint256"
        }
      ],
      "stateMutability": "nonpayable",
      "type": "function"
    }
  ],
  "transactionHash": "0xb6e04e9ebb6aa0647d524e629e622d678a9e9eb37beb1810cc27037c4faf908a",
  "args": [],
  "numDeployments": 1,
  "solcInputHash": "e37913ab496d937cc6477b2e54359c29",
  "bytecode": "0x608060405234801561001057600080fd5b506107f2806100206000396000f3fe608060405234801561001057600080fd5b506004361061002b5760003560e01c8063c5174d1d14610030575b600080fd5b61004361003e3660046105e4565b61005b565b6040516100529392919061078e565b60405180910390f35b60008060008061006961042f565b905061010d61007b6020870187610564565b8260030160009054906101000a90046001600160a01b03166001600160a01b0316635bfccac96040518163ffffffff1660e01b815260040160206040518083038186803b1580156100cb57600080fd5b505afa1580156100df573d6000803e3d6000fd5b505050506040513d601f19601f820116820180604052508101906101039190610587565b8760a00135610453565b6101b26101206040870160208801610564565b8260030160009054906101000a90046001600160a01b03166001600160a01b0316635bfccac96040518163ffffffff1660e01b815260040160206040518083038186803b15801561017057600080fd5b505afa158015610184573d6000803e3d6000fd5b505050506040513d601f19601f820116820180604052508101906101a89190610587565b8760c00135610453565b604080516101608101909152600090806101cf6020890189610564565b6001600160a01b031681526020018760200160208101906101f09190610564565b6001600160a01b0316815260200161020e6060890160408a016105fb565b62ffffff1681526020016102286080890160608a016105c3565b60020b815260200161024060a0890160808a016105c3565b60020b81526020018760a0013581526020018760c0013581526020016000815260200160008152602001306001600160a01b031681526020014260780181525090508160030160009054906101000a90046001600160a01b03166001600160a01b0316635bfccac96040518163ffffffff1660e01b815260040160206040518083038186803b1580156102d257600080fd5b505afa1580156102e6573d6000803e3d6000fd5b505050506040513d601f19601f8201168201806040525081019061030a9190610587565b6001600160a01b03166388316456826040518263ffffffff1660e01b815260040161033591906106d7565b608060405180830381600087803b15801561034f57600080fd5b505af1158015610363573d6000803e3d6000fd5b505050506040513d601f19601f820116820180604052508101906103879190610636565b60405163ef40278560e01b81529398509096509450309163ef40278591506103b3908890600401610785565b600060405180830381600087803b1580156103cd57600080fd5b505af11580156103e1573d6000803e3d6000fd5b50505050306001600160a01b03167f3907fc173e73ddee85fa7b14c297e292b83b99e388e6f781d97132604020e8bd8660405161041e9190610785565b60405180910390a250509193909250565b7fd5aa5c52d76b5d2be1bece4b96c91e533fe2611adb0c19cf868dadf921fc13b890565b604051636eb1769f60e11b815281906001600160a01b0385169063dd62ed3e9061048390309087906004016106a4565b60206040518083038186803b15801561049b57600080fd5b505afa1580156104af573d6000803e3d6000fd5b505050506040513d601f19601f820116820180604052508101906104d3919061061e565b106104dd5761055f565b60405163095ea7b360e01b81526001600160a01b0384169063095ea7b39061050b90859085906004016106be565b602060405180830381600087803b15801561052557600080fd5b505af1158015610539573d6000803e3d6000fd5b505050506040513d601f19601f8201168201806040525081019061055d91906105a3565b505b505050565b600060208284031215610575578081fd5b8135610580816107a4565b9392505050565b600060208284031215610598578081fd5b8151610580816107a4565b6000602082840312156105b4578081fd5b81518015158114610580578182fd5b6000602082840312156105d4578081fd5b81358060020b8114610580578182fd5b600060e082840312156105f5578081fd5b50919050565b60006020828403121561060c578081fd5b813562ffffff81168114610580578182fd5b60006020828403121561062f578081fd5b5051919050565b6000806000806080858703121561064b578283fd5b8451935060208501516fffffffffffffffffffffffffffffffff81168114610671578384fd5b6040860151606090960151949790965092505050565b6001600160a01b03169052565b60020b9052565b62ffffff169052565b6001600160a01b0392831681529116602082015260400190565b6001600160a01b03929092168252602082015260400190565b6000610160820190506106eb828451610687565b60208301516106fd6020840182610687565b506040830151610710604084018261069b565b5060608301516107236060840182610694565b5060808301516107366080840182610694565b5060a083015160a083015260c083015160c083015260e083015160e08301526101008084015181840152506101208084015161077482850182610687565b505061014092830151919092015290565b90815260200190565b9283526020830191909152604082015260600190565b6001600160a01b03811681146107b957600080fd5b5056fea2646970667358221220a42d83b3c23780373ab1422942270d34f12ad4e1451a21a59cf63c4bfbb3980764736f6c63430007060033",
  "devdoc": {
    "events": {
      "PositionMinted(address,uint256)": {
        "params": {
          "positionManager": "address of PositionManager",
          "tokenId": "Id of deposited token"
        }
      }
    },
    "kind": "dev",
    "methods": {
      "mint((address,address,uint24,int24,int24,uint256,uint256))": {
        "params": {
          "inputs": "struct of MintInput parameters"
        },
        "returns": {
          "amount0Deposited": "token0 amount deposited",
          "amount1Deposited": "token1 amount deposited",
          "tokenId": "ID of the minted NFT"
        }
      }
    },
    "version": 1
  },
  "userdoc": {
    "events": {
      "PositionMinted(address,uint256)": {
        "notice": "emitted when a UniswapNFT is deposited in PositionManager"
      }
    },
    "kind": "user",
    "methods": {
      "mint((address,address,uint24,int24,int24,uint256,uint256))": {
        "notice": "mints a UniswapV3 position NFT"
      }
    },
    "notice": "action to mint a UniswapV3 position NFT",
    "version": 1
  },
  "storageLayout": {
    "storage": [],
    "types": null
  }
}