{
  "address": "0x821f3361D454cc98b7555221A06Be563a7E2E0A6",
  "abi": [
    {
      "inputs": [
        {
          "internalType": "address",
          "name": "_governance",
          "type": "address"
        }
      ],
      "stateMutability": "nonpayable",
      "type": "constructor"
    },
    {
      "anonymous": false,
      "inputs": [
        {
          "indexed": true,
          "internalType": "address",
          "name": "positionManager",
          "type": "address"
        },
        {
          "indexed": false,
          "internalType": "address",
          "name": "user",
          "type": "address"
        }
      ],
      "name": "PositionManagerCreated",
      "type": "event"
    },
    {
      "inputs": [
        {
          "internalType": "uint256",
          "name": "",
          "type": "uint256"
        }
      ],
      "name": "actions",
      "outputs": [
        {
          "internalType": "address",
          "name": "facetAddress",
          "type": "address"
        },
        {
          "internalType": "enum IDiamondCut.FacetCutAction",
          "name": "action",
          "type": "uint8"
        }
      ],
      "stateMutability": "view",
      "type": "function"
    },
    {
      "inputs": [
        {
          "internalType": "address",
          "name": "_governance",
          "type": "address"
        }
      ],
      "name": "changeGovernance",
      "outputs": [],
      "stateMutability": "nonpayable",
      "type": "function"
    },
    {
      "inputs": [],
      "name": "create",
      "outputs": [
        {
          "internalType": "address[]",
          "name": "",
          "type": "address[]"
        }
      ],
      "stateMutability": "nonpayable",
      "type": "function"
    },
    {
      "inputs": [],
      "name": "getAllPositionManagers",
      "outputs": [
        {
          "internalType": "address[]",
          "name": "",
          "type": "address[]"
        }
      ],
      "stateMutability": "view",
      "type": "function"
    },
    {
      "inputs": [
        {
          "internalType": "uint256",
          "name": "",
          "type": "uint256"
        }
      ],
      "name": "positionManagers",
      "outputs": [
        {
          "internalType": "address",
          "name": "",
          "type": "address"
        }
      ],
      "stateMutability": "view",
      "type": "function"
    },
    {
      "inputs": [
        {
          "internalType": "address",
          "name": "actionAddress",
          "type": "address"
        },
        {
          "internalType": "bytes4[]",
          "name": "selectors",
          "type": "bytes4[]"
        }
      ],
      "name": "pushActionData",
      "outputs": [],
      "stateMutability": "nonpayable",
      "type": "function"
    },
    {
      "inputs": [
        {
          "internalType": "address",
          "name": "",
          "type": "address"
        }
      ],
      "name": "userToPositionManager",
      "outputs": [
        {
          "internalType": "address",
          "name": "",
          "type": "address"
        }
      ],
      "stateMutability": "view",
      "type": "function"
    }
  ],
  "transactionHash": "0x67740468ae893375eeb956210b00e4e95b3eeb9240a564eb0d2285795ce33cea",
  "args": [
    "0xf39Fd6e51aad88F6F4ce6aB8827279cffFb92266"
  ],
  "numDeployments": 1,
  "solcInputHash": "e37913ab496d937cc6477b2e54359c29",
  "bytecode": "0x608060405234801561001057600080fd5b5060405161521838038061521883398101604081905261002f91610054565b600080546001600160a01b0319166001600160a01b0392909216919091179055610082565b600060208284031215610065578081fd5b81516001600160a01b038116811461007b578182fd5b9392505050565b615187806100916000396000f3fe60806040523480156200001157600080fd5b5060043610620000885760003560e01c806383240f83116200006357806383240f8314620000ee57806399572d6f1462000115578063c81e0f91146200012c578063efc81a8c14620001435762000088565b806304db6f54146200008d57806319019aeb14620000a657806320e467f614620000c8575b600080fd5b620000a46200009e36600462000728565b6200014d565b005b620000b062000266565b604051620000bf9190620008c1565b60405180910390f35b620000df620000d9366004620007af565b620002ca565b604051620000bf919062000840565b62000105620000ff366004620007af565b620002f5565b604051620000bf929190620008a2565b620000a46200012636600462000704565b62000330565b620000df6200013d36600462000704565b6200037f565b620000b06200039a565b6000546001600160a01b03163314620001835760405162461bcd60e51b81526004016200017a9062000bec565b60405180910390fd5b60408051606081019091526001600160a01b03841681526006906020810160008152602001848480806020026020016040519081016040528093929190818152602001838360200280828437600092018290525093909452505083546001810185559381526020908190208351600295860290910180546001600160a01b0319166001600160a01b039092169190911780825591840151939490939250839160ff60a01b191690600160a01b9084908111156200023c57fe5b0217905550604082015180516200025e9160018401916020909101906200060f565b505050505050565b60606005805480602002602001604051908101604052809291908181526020018280548015620002c057602002820191906000526020600020905b81546001600160a01b03168152600190910190602001808311620002a1575b5050505050905090565b60058181548110620002db57600080fd5b6000918252602090912001546001600160a01b0316905081565b600681815481106200030657600080fd5b60009182526020909120600290910201546001600160a01b0381169150600160a01b900460ff1682565b6000546001600160a01b031633146200035d5760405162461bcd60e51b81526004016200017a9062000bec565b600080546001600160a01b0319166001600160a01b0392909216919091179055565b6007602052600090815260409020546001600160a01b031681565b336000908152600760205260409020546060906001600160a01b031615620003d65760405162461bcd60e51b81526004016200017a9062000c59565b60015460045460405160009233926001600160a01b0391821692911690620003fe90620006c2565b6200040c9392919062000854565b604051809103906000f08015801562000429573d6000803e3d6000fd5b5060058054600181019091557f036b6384b5eca791c62761152d0c79bb0604c104a5fb6f4eb0703f3154bb3db00180546001600160a01b038084166001600160a01b031992831681179093553360008181526007602052604090819020805490941685179093556002546004805460035495516306552ff360e01b815297985095966306552ff396620004c9969495938416949084169316910162000877565b600060405180830381600087803b158015620004e457600080fd5b505af1158015620004f9573d6000803e3d6000fd5b50506040516307e4c70760e21b8152606092506001600160a01b0384169150631f931c1c906200053490600690600090869060040162000910565b600060405180830381600087803b1580156200054f57600080fd5b505af115801562000564573d6000803e3d6000fd5b50505050816001600160a01b03167fcd08baef8491fbefc9205236874e188ae474400c7fbf8022f3b86d97ec5bc40f33604051620005a3919062000840565b60405180910390a260058054806020026020016040519081016040528092919081815260200182805480156200060357602002820191906000526020600020905b81546001600160a01b03168152600190910190602001808311620005e4575b50505050509250505090565b82805482825590600052602060002090600701600890048101928215620006b05791602002820160005b838211156200067c57835183826101000a81548163ffffffff021916908360e01c0217905550926020019260040160208160030104928301926001030262000639565b8015620006ae5782816101000a81549063ffffffff02191690556004016020816003010492830192600103026200067c565b505b50620006be929150620006d0565b5090565b61447b8062000cd783390190565b5b80821115620006be5760008155600101620006d1565b80356001600160a01b0381168114620006ff57600080fd5b919050565b60006020828403121562000716578081fd5b6200072182620006e7565b9392505050565b6000806000604084860312156200073d578182fd5b6200074884620006e7565b9250602084013567ffffffffffffffff8082111562000765578384fd5b818601915086601f83011262000779578384fd5b81358181111562000788578485fd5b87602080830285010111156200079c578485fd5b6020830194508093505050509250925092565b600060208284031215620007c1578081fd5b5035919050565b6001600160a01b03169052565b6001600160e01b0319169052565b60008151808452815b818110156200080a57602081850181015186830182015201620007ec565b818111156200081c5782602083870101525b50601f01601f19169290920160200192915050565b600381106200083c57fe5b9052565b6001600160a01b0391909116815260200190565b6001600160a01b0393841681529183166020830152909116604082015260600190565b6001600160a01b03948516815292841660208401529083166040830152909116606082015260800190565b6001600160a01b03831681526040810162000721602083018462000831565b6020808252825182820181905260009190848201906040850190845b81811015620009045783516001600160a01b031683529284019291840191600101620008dd565b50909695505050505050565b60006060825260608201855480825260808401915060206080818302860101888552818520855b8481101562000bbb57878303607f1901865281546001600160a01b03811684526200096c85850160a083901c60ff1662000831565b506001808301606060408601526060850181546200098b818362000ccd565b9150620009988362000cc1565b92508a5b8160078201101562000a61578354620009b9848260e01b620007d5565b6001600160e01b0319620009d6858c0160c084901b8316620007d5565b620009ea60408601828460a01b16620007d5565b620009fe60608601828460801b16620007d5565b62000a1260808601828460601b16620007d5565b62000a2660a08601828460401b16620007d5565b62000a3960c0860182848e1b16620007d5565b62000a4a60e08601828416620007d5565b50509284019261010092909201916008016200099c565b9254928181101562000a835762000a7c838560e01b620007d5565b9188019184015b8181101562000aad5762000aa68360c086901b6001600160e01b031916620007d5565b9188019184015b8181101562000ad75762000ad08360a086901b6001600160e01b031916620007d5565b9188019184015b8181101562000b015762000afa83608086901b6001600160e01b031916620007d5565b9188019184015b8181101562000b2b5762000b2483606086901b6001600160e01b031916620007d5565b9188019184015b8181101562000b555762000b4e83604086901b6001600160e01b031916620007d5565b9188019184015b8181101562000b7d5762000b7683858b1b6001600160e01b031916620007d5565b9188019184015b8181101562000ba15762000b9c836001600160e01b03198616620007d5565b918801915b505097860197945050506002919091019060010162000937565b505062000bcb82870189620007c8565b858103604087015262000bdf8188620007e3565b9998505050505050505050565b60208082526047908201527f506f736974696f6e4d616e61676572466163746f72793a3a6f6e6c79476f766560408201527f726e616e63653a204f6e6c7920676f7665726e616e63652063616e2061646420606082015266616374696f6e7360c81b608082015260a00190565b60208082526042908201527f506f736974696f6e4d616e61676572466163746f72793a3a6372656174653a2060408201527f5573657220616c726561647920686173206120506f736974696f6e4d616e616760608201526132b960f11b608082015260a00190565b60009081526020902090565b9081526020019056fe60806040526040516200447b3803806200447b833981016040819052620000269162000c8a565b80336001600160a01b0316816001600160a01b0316632d2c5b586040518163ffffffff1660e01b815260040160206040518083038186803b1580156200006b57600080fd5b505afa15801562000080573d6000803e3d6000fd5b505050506040513d601f19601f82011682018060405250810190620000a6919062000c66565b6001600160a01b031614620000d85760405162461bcd60e51b8152600401620000cf9062000ed4565b60405180910390fd5b620000ee84620001e860201b620014811760201c565b604080516001808252818301909252600091816020015b6200010f62000c2a565b815260200190600190039081620001055750506040805160018082528183019092529192506000919060208083019080368337019050509050631f931c1c60e01b816000815181106200015e57fe5b6001600160e01b031990921660209283029190910182015260408051606081019091526001600160a01b0387168152908101600081526020018281525082600081518110620001a957fe5b6020026020010181905250620001dc826000604051806020016040528060008152506200024a60201b620014e11760201c565b5050505050506200126f565b6000620001f462000401565b6004810180546001600160a01b038581166001600160a01b031983168117909355604051939450169182907f8be0079c531659141344cd1fd0a4f28419497f9722a3daafe3b4186f6b6457e090600090a3505050565b60005b8351811015620003b25760008482815181106200026657fe5b6020026020010151602001519050600060028111156200028257fe5b8160028111156200028f57fe5b1415620002de57620002d8858381518110620002a757fe5b602002602001015160000151868481518110620002c057fe5b6020026020010151604001516200042560201b60201c565b620003a8565b6001816002811115620002ed57fe5b14156200033657620002d88583815181106200030557fe5b6020026020010151600001518684815181106200031e57fe5b6020026020010151604001516200054960201b60201c565b60028160028111156200034557fe5b14156200038e57620002d88583815181106200035d57fe5b6020026020010151600001518684815181106200037657fe5b6020026020010151604001516200067960201b60201c565b60405162461bcd60e51b8152600401620000cf9062000feb565b506001016200024d565b507f8faa70878671ccd212d20771b795c50af8fd3ff6cf27f4bde57e5d4de0aeb673838383604051620003e89392919062000d2c565b60405180910390a1620003fc828262000741565b505050565b7fd5aa5c52d76b5d2be1bece4b96c91e533fe2611adb0c19cf868dadf921fc13b890565b6000815111620004495760405162461bcd60e51b8152600401620000cf9062000f43565b60006200045562000401565b90506001600160a01b038316620004805760405162461bcd60e51b8152600401620000cf9062001032565b6001600160a01b03831660009081526001820160205260409020546001600160601b038116620004b657620004b6828562000848565b60005b835181101562000542576000848281518110620004d257fe5b6020908102919091018101516001600160e01b031981166000908152918690526040909120549091506001600160a01b03168015620005255760405162461bcd60e51b8152600401620000cf9062001129565b620005338583868a62000890565b505060019182019101620004b9565b5050505050565b60008151116200056d5760405162461bcd60e51b8152600401620000cf9062000f43565b60006200057962000401565b90506001600160a01b038316620005a45760405162461bcd60e51b8152600401620000cf9062001032565b6001600160a01b03831660009081526001820160205260409020546001600160601b038116620005da57620005da828562000848565b60005b835181101562000542576000848281518110620005f657fe5b6020908102919091018101516001600160e01b031981166000908152918690526040909120549091506001600160a01b039081169087168114156200064f5760405162461bcd60e51b8152600401620000cf9062001186565b6200065c85828462000930565b6200066a8583868a62000890565b505060019182019101620005dd565b60008151116200069d5760405162461bcd60e51b8152600401620000cf9062000f43565b6000620006a962000401565b90506001600160a01b03831615620006d55760405162461bcd60e51b8152600401620000cf90620011e3565b60005b82518110156200073b576000838281518110620006f157fe5b6020908102919091018101516001600160e01b031981166000908152918590526040909120549091506001600160a01b03166200073084828462000930565b5050600101620006d8565b50505050565b6001600160a01b0382166200077857805115620007725760405162461bcd60e51b8152600401620000cf9062000e31565b62000844565b60008151116200079c5760405162461bcd60e51b8152600401620000cf906200107e565b600080836001600160a01b031683604051620007b9919062000d0e565b600060405180830381855af49150503d8060008114620007f6576040519150601f19603f3d011682016040523d82523d6000602084013e620007fb565b606091505b5091509150816200073b578051156200082a578060405162461bcd60e51b8152600401620000cf919062000e1c565b60405162461bcd60e51b8152600401620000cf9062000e8e565b5050565b6002820180546001600160a01b0390921660008181526001948501602090815260408220860185905594840183559182529290200180546001600160a01b0319169091179055565b6001600160e01b0319831660008181526020868152604080832080546001600160601b03909716600160a01b026001600160a01b0397881617815594909516808352600180890183529583208054968701815583528183206008870401805460e09890981c60046007909816979097026101000a96870263ffffffff9097021990971695909517909555529290915281546001600160a01b031916179055565b6001600160a01b038216620009595760405162461bcd60e51b8152600401620000cf9062000f8e565b6001600160a01b038216301415620009855760405162461bcd60e51b8152600401620000cf90620010db565b6001600160e01b03198116600090815260208481526040808320546001600160a01b03861684526001870190925290912054600160a01b9091046001600160601b0316906000190180821462000ab4576001600160a01b03841660009081526001860160205260408120805483908110620009fc57fe5b600091825260208083206008830401546001600160a01b038916845260018a019091526040909220805460079092166004026101000a90920460e01b92508291908590811062000a4857fe5b600091825260208083206008830401805463ffffffff60079094166004026101000a938402191660e09590951c929092029390931790556001600160e01b03199290921682528690526040902080546001600160a01b0316600160a01b6001600160601b038516021790555b6001600160a01b0384166000908152600186016020526040902080548062000ad857fe5b60008281526020808220600860001990940193840401805463ffffffff600460078716026101000a0219169055919092556001600160e01b031985168252869052604081205580620005425760028501546001600160a01b03851660009081526001878101602052604090912001546000199091019080821462000bd357600087600201838154811062000b6857fe5b6000918252602090912001546002890180546001600160a01b03909216925082918490811062000b9457fe5b600091825260208083209190910180546001600160a01b0319166001600160a01b03948516179055929091168152600189810190925260409020018190555b8660020180548062000be157fe5b60008281526020808220830160001990810180546001600160a01b03191690559092019092556001600160a01b0388168252600189810190915260408220015550505050505050565b6040805160608082018352600080835260208301529181019190915290565b80516001600160a01b038116811462000c6157600080fd5b919050565b60006020828403121562000c78578081fd5b62000c838262000c49565b9392505050565b60008060006060848603121562000c9f578182fd5b62000caa8462000c49565b925062000cba6020850162000c49565b915062000cca6040850162000c49565b90509250925092565b6001600160a01b03169052565b6000815180845262000cfa81602086016020860162001240565b601f01601f19169290920160200192915050565b6000825162000d2281846020870162001240565b9190910192915050565b606080825284518282018190526000919060809081850190602080820287018401818b01875b8481101562000de957898303607f19018652815180516001600160a01b0316845284810151898501906003811062000d8657fe5b858701526040918201519185018a9052815190819052908501908a90898601905b8083101562000dd35783516001600160e01b031916825292870192600192909201919087019062000da7565b5097860197945050509083019060010162000d52565b505062000df98289018b62000cd3565b878103604089015262000e0d818a62000ce0565b9b9a5050505050505050505050565b60006020825262000c83602083018462000ce0565b6020808252603c908201527f4c69624469616d6f6e644375743a205f696e697420697320616464726573732860408201527f3029206275745f63616c6c64617461206973206e6f7420656d70747900000000606082015260800190565b60208082526026908201527f4c69624469616d6f6e644375743a205f696e69742066756e6374696f6e2072656040820152651d995c9d195960d21b606082015260800190565b60208082526049908201527f506f736974696f6e4d616e616765723a3a696e69743a204f6e6c7920506f736960408201527f74696f6e4d616e61676572466163746f72792063616e20696e697420746869736060820152680818dbdb9d1c9858dd60ba1b608082015260a00190565b6020808252602b908201527f4c69624469616d6f6e644375743a204e6f2073656c6563746f727320696e206660408201526a1858d95d081d1bc818dd5d60aa1b606082015260800190565b60208082526037908201527f4c69624469616d6f6e644375743a2043616e27742072656d6f76652066756e6360408201527f74696f6e207468617420646f65736e2774206578697374000000000000000000606082015260800190565b60208082526027908201527f4c69624469616d6f6e644375743a20496e636f727265637420466163657443756040820152663a20b1ba34b7b760c91b606082015260800190565b6020808252602c908201527f4c69624469616d6f6e644375743a204164642066616365742063616e2774206260408201526b65206164647265737328302960a01b606082015260800190565b6020808252603d908201527f4c69624469616d6f6e644375743a205f63616c6c6461746120697320656d707460408201527f7920627574205f696e6974206973206e6f742061646472657373283029000000606082015260800190565b6020808252602e908201527f4c69624469616d6f6e644375743a2043616e27742072656d6f766520696d6d7560408201526d3a30b1363290333ab731ba34b7b760911b606082015260800190565b60208082526035908201527f4c69624469616d6f6e644375743a2043616e2774206164642066756e6374696f60408201527f6e207468617420616c7265616479206578697374730000000000000000000000606082015260800190565b60208082526038908201527f4c69624469616d6f6e644375743a2043616e2774207265706c6163652066756e60408201527f6374696f6e20776974682073616d652066756e6374696f6e0000000000000000606082015260800190565b60208082526036908201527f4c69624469616d6f6e644375743a2052656d6f7665206661636574206164647260408201527f657373206d757374206265206164647265737328302900000000000000000000606082015260800190565b60005b838110156200125d57818101518382015260200162001243565b838111156200073b5750506000910152565b6131fc806200127f6000396000f3fe6080604052600436106100e15760003560e01c80636c7da9971161007f578063a66796f011610059578063a66796f014610331578063dc673c101461035e578063ef4027851461038b578063f4f3b200146103ab576100eb565b80636c7da997146102c157806385d12586146102ef578063893d20e81461030f576100eb565b80632988cf7a116100bb5780632988cf7a1461023f5780632f78cf9f14610261578063322c250714610281578063641e6166146102a1576100eb565b806306552ff3146101ba578063150b7a02146101dc57806325e8b4bd14610212576100eb565b366100eb57600080fd5b6100f4336103cb565b806101035750610103336104b3565b8061010d57503330145b6101325760405162461bcd60e51b815260040161012990612e81565b60405180910390fd5b600080356001600160e01b03191681527fd5aa5c52d76b5d2be1bece4b96c91e533fe2611adb0c19cf868dadf921fc13b8602081905260409091205481906001600160a01b0316806101965760405162461bcd60e51b815260040161012990612e2f565b3660008037600080366000845af43d6000803e8080156101b5573d6000f35b3d6000fd5b3480156101c657600080fd5b506101da6101d536600461252c565b6106bd565b005b3480156101e857600080fd5b506101fc6101f7366004612587565b6107c4565b6040516102099190612a76565b60405180910390f35b34801561021e57600080fd5b5061023261022d36600461273d565b6107d4565b6040516102099190612a47565b34801561024b57600080fd5b50610254610944565b6040516102099190612a03565b34801561026d57600080fd5b506101da61027c36600461276c565b61099f565b34801561028d57600080fd5b506101da61029c3660046127ad565b610b8a565b3480156102ad57600080fd5b506101da6102bc36600461261c565b610d42565b3480156102cd57600080fd5b506102e16102dc36600461273d565b610dfd565b604051610209929190612a52565b3480156102fb57600080fd5b506101da61030a36600461270d565b610eb0565b34801561031b57600080fd5b50610324610fa1565b604051610209919061288e565b34801561033d57600080fd5b5061035161034c36600461273d565b610fbf565b6040516102099190612a8b565b34801561036a57600080fd5b5061037e6103793660046125f1565b6111b5565b6040516102099190612a6d565b34801561039757600080fd5b506101da6103a636600461270d565b611276565b3480156103b757600080fd5b506101da6103c63660046124f4565b6113ea565b6000806103d6611669565b905060006103e261168d565b905060005b81518110156104ab57600583015482516001600160a01b0380881692169063aa10e9f09085908590811061041757fe5b60200260200101516040518263ffffffff1660e01b815260040161043b9190612a6d565b60206040518083038186803b15801561045357600080fd5b505afa158015610467573d6000803e3d6000fd5b505050506040513d601f19601f8201168201806040525081019061048b9190612510565b6001600160a01b031614156104a357600193506104ab565b6001016103e7565b505050919050565b6000806104be611669565b905060008160050160009054906101000a90046001600160a01b03166001600160a01b0316633a8141cc6040518163ffffffff1660e01b815260040160006040518083038186803b15801561051257600080fd5b505afa158015610526573d6000803e3d6000fd5b505050506040513d6000823e601f3d908101601f1916820160405261054e9190810190612650565b905060005b81518110156104ab57600583015482516001600160a01b0380881692169063aa10e9f09085908590811061058357fe5b60200260200101516040518263ffffffff1660e01b81526004016105a79190612a6d565b60206040518083038186803b1580156105bf57600080fd5b505afa1580156105d3573d6000803e3d6000fd5b505050506040513d601f19601f820116820180604052508101906105f79190612510565b6001600160a01b03161480156106a75750600583015482516001600160a01b0390911690635c36901c9084908490811061062d57fe5b60200260200101516040518263ffffffff1660e01b81526004016106519190612a6d565b60206040518083038186803b15801561066957600080fd5b505afa15801561067d573d6000803e3d6000fd5b505050506040513d601f19601f820116820180604052508101906106a191906126f1565b15156001145b156106b557600193506104ab565b600101610553565b81336001600160a01b0316816001600160a01b0316632d2c5b586040518163ffffffff1660e01b815260040160206040518083038186803b15801561070157600080fd5b505afa158015610715573d6000803e3d6000fd5b505050506040513d601f19601f820116820180604052508101906107399190612510565b6001600160a01b03161461075f5760405162461bcd60e51b815260040161012990612b41565b6000610769611669565b6004810180546001600160a01b039889166001600160a01b0319918216179091556003820180549789169782169790971790965560058101805495881695871695909517909455505060069091018054919093169116179055565b630a85bd0160e11b949350505050565b60008260006107e1611669565b9050306001600160a01b03168160030160009054906101000a90046001600160a01b03166001600160a01b0316635bfccac96040518163ffffffff1660e01b815260040160206040518083038186803b15801561083d57600080fd5b505afa158015610851573d6000803e3d6000fd5b505050506040513d601f19601f820116820180604052508101906108759190612510565b6001600160a01b0316636352211e846040518263ffffffff1660e01b81526004016108a09190612a6d565b60206040518083038186803b1580156108b857600080fd5b505afa1580156108cc573d6000803e3d6000fd5b505050506040513d601f19601f820116820180604052508101906108f09190612510565b6001600160a01b0316146109165760405162461bcd60e51b815260040161012990612cc1565b50505060009182526001602090815260408084206001600160a01b0393909316845291905290205460ff1690565b606060008080548060200260200160405190810160405280929190818152602001828054801561099357602002820191906000526020600020905b81548152602001906001019080831161097f575b50939550505050505090565b60006109a9611669565b60048101549091506001600160a01b031633146109d85760405162461bcd60e51b815260040161012990612ff3565b8360006109e3611669565b9050306001600160a01b03168160030160009054906101000a90046001600160a01b03166001600160a01b0316635bfccac96040518163ffffffff1660e01b815260040160206040518083038186803b158015610a3f57600080fd5b505afa158015610a53573d6000803e3d6000fd5b505050506040513d601f19601f82011682018060405250810190610a779190612510565b6001600160a01b0316636352211e846040518263ffffffff1660e01b8152600401610aa29190612a6d565b60206040518083038186803b158015610aba57600080fd5b505afa158015610ace573d6000803e3d6000fd5b505050506040513d601f19601f82011682018060405250810190610af29190612510565b6001600160a01b031614610b185760405162461bcd60e51b815260040161012990612cc1565b60008681526001602090815260408083206001600160a01b038916845290915290819020805460ff1916861515179055517f4b7f8ffd5cd51e14cd79d52eff7c3439cfa0a2eb27f929d0eef8481a022989b490610b7a908790899088906128f9565b60405180910390a1505050505050565b6000610b94611669565b60048101549091506001600160a01b03163314610bc35760405162461bcd60e51b815260040161012990612ff3565b836000610bce611669565b9050306001600160a01b03168160030160009054906101000a90046001600160a01b03166001600160a01b0316635bfccac96040518163ffffffff1660e01b815260040160206040518083038186803b158015610c2a57600080fd5b505afa158015610c3e573d6000803e3d6000fd5b505050506040513d601f19601f82011682018060405250810190610c629190612510565b6001600160a01b0316636352211e846040518263ffffffff1660e01b8152600401610c8d9190612a6d565b60206040518083038186803b158015610ca557600080fd5b505afa158015610cb9573d6000803e3d6000fd5b505050506040513d601f19601f82011682018060405250810190610cdd9190612510565b6001600160a01b031614610d035760405162461bcd60e51b815260040161012990612cc1565b60008681526001602081815260408084206001600160a01b038a16855282529092208651610d39939190920191908701906123d4565b50505050505050565b610d4b336103cb565b80610d5a5750610d5a336104b3565b80610d6457503330145b610d805760405162461bcd60e51b815260040161012990612e81565b6000610d8a611669565b6001600160a01b03851660009081526008820160209081526040808320878452909152902054909150610dcf5760405162461bcd60e51b815260040161012990612c58565b6001600160a01b03909316600090815260089093016020908152604080852093855260019093019052912055565b6001602081815260009384526040808520825292845292829020805481830180548551600261010096831615969096026000190190911694909404601f810187900487028501870190955284845260ff9091169491939091830182828015610ea65780601f10610e7b57610100808354040283529160200191610ea6565b820191906000526020600020905b815481529060010190602001808311610e8957829003601f168201915b5050505050905082565b610eb9336103cb565b80610ec85750610ec8336104b3565b80610ed257503330145b610eee5760405162461bcd60e51b815260040161012990612e81565b60005b600054811015610f9c578160008281548110610f0957fe5b90600052602060002001541415610f945760005460011015610f8357600080546000198101908110610f3757fe5b906000526020600020015460008281548110610f4f57fe5b90600052602060002001819055506000805480610f6857fe5b60019003818190600052602060002001600090559055610f8e565b610f8e600080612460565b50610f9e565b600101610ef1565b505b50565b600080610fac611669565b600401546001600160a01b031691505090565b6060826000610fcc611669565b9050306001600160a01b03168160030160009054906101000a90046001600160a01b03166001600160a01b0316635bfccac96040518163ffffffff1660e01b815260040160206040518083038186803b15801561102857600080fd5b505afa15801561103c573d6000803e3d6000fd5b505050506040513d601f19601f820116820180604052508101906110609190612510565b6001600160a01b0316636352211e846040518263ffffffff1660e01b815260040161108b9190612a6d565b60206040518083038186803b1580156110a357600080fd5b505afa1580156110b7573d6000803e3d6000fd5b505050506040513d601f19601f820116820180604052508101906110db9190612510565b6001600160a01b0316146111015760405162461bcd60e51b815260040161012990612cc1565b60008581526001602081815260408084206001600160a01b0389168552825292839020820180548451600294821615610100026000190190911693909304601f81018390048302840183019094528383529192908301828280156111a65780601f1061117b576101008083540402835291602001916111a6565b820191906000526020600020905b81548152906001019060200180831161118957829003601f168201915b50505050509250505092915050565b60006111c0336103cb565b806111cf57506111cf336104b3565b806111d957503330145b6111f55760405162461bcd60e51b815260040161012990612e81565b60006111ff611669565b6001600160a01b038516600090815260088201602090815260408083208784529091529020549091506112445760405162461bcd60e51b815260040161012990612dc7565b6001600160a01b0384166000908152600890910160209081526040808320858452600101909152902054905092915050565b806000611281611669565b9050306001600160a01b03168160030160009054906101000a90046001600160a01b03166001600160a01b0316635bfccac96040518163ffffffff1660e01b815260040160206040518083038186803b1580156112dd57600080fd5b505afa1580156112f1573d6000803e3d6000fd5b505050506040513d601f19601f820116820180604052508101906113159190612510565b6001600160a01b0316636352211e846040518263ffffffff1660e01b81526004016113409190612a6d565b60206040518083038186803b15801561135857600080fd5b505afa15801561136c573d6000803e3d6000fd5b505050506040513d601f19601f820116820180604052508101906113909190612510565b6001600160a01b0316146113b65760405162461bcd60e51b815260040161012990612cc1565b5050600080546001810182559080527f290decd9548b62a8d60345a988386fc84ba6bc95484008f6362f93160ef3e5630155565b60006113f4611669565b60048101549091506001600160a01b031633146114235760405162461bcd60e51b815260040161012990612ff3565b6114308230600019611732565b600061143f8333600019611842565b90507fbfed55bdcd242e3dd0f60ddd7d1e87c67f61c34cd9527b3e6455d841b1025362833383604051611474939291906128bc565b60405180910390a1505050565b600061148b611669565b6004810180546001600160a01b038581166001600160a01b031983168117909355604051939450169182907f8be0079c531659141344cd1fd0a4f28419497f9722a3daafe3b4186f6b6457e090600090a3505050565b60005b835181101561161e5760008482815181106114fb57fe5b60200260200101516020015190506000600281111561151657fe5b81600281111561152257fe5b14156115655761156085838151811061153757fe5b60200260200101516000015186848151811061154f57fe5b602002602001015160400151611882565b611615565b600181600281111561157357fe5b14156115b15761156085838151811061158857fe5b6020026020010151600001518684815181106115a057fe5b602002602001015160400151611993565b60028160028111156115bf57fe5b14156115fd576115608583815181106115d457fe5b6020026020010151600001518684815181106115ec57fe5b602002602001015160400151611aae565b60405162461bcd60e51b815260040161012990612d34565b506001016114e4565b507f8faa70878671ccd212d20771b795c50af8fd3ff6cf27f4bde57e5d4de0aeb6738383836040516116529392919061291c565b60405180910390a16116648282611b63565b505050565b7fd5aa5c52d76b5d2be1bece4b96c91e533fe2611adb0c19cf868dadf921fc13b890565b604080516002808252606080830184529260009291906020830190803683370190505090506040516020016116c190612874565b60405160208183030381529060405280519060200120816000815181106116e457fe5b6020026020010181815250506040516020016116ff90612859565b604051602081830303815290604052805190602001208160018151811061172257fe5b6020908102919091010152905090565b604051636eb1769f60e11b815281906001600160a01b0385169063dd62ed3e9061176290309087906004016128a2565b60206040518083038186803b15801561177a57600080fd5b505afa15801561178e573d6000803e3d6000fd5b505050506040513d601f19601f820116820180604052508101906117b29190612725565b106117bc57611664565b60405163095ea7b360e01b81526001600160a01b0384169063095ea7b3906117ea90859085906004016128e0565b602060405180830381600087803b15801561180457600080fd5b505af1158015611818573d6000803e3d6000fd5b505050506040513d601f19601f8201168201806040525081019061183c91906126f1565b50505050565b60008061184f8530611c54565b90508281101561186157809150611865565b8291505b61187a6001600160a01b038616308685611cda565b509392505050565b60008151116118a35760405162461bcd60e51b815260040161012990612bb0565b60006118ad611669565b90506001600160a01b0383166118d55760405162461bcd60e51b815260040161012990612d7b565b6001600160a01b03831660009081526001820160205260409020546001600160601b038116611908576119088285611d34565b60005b835181101561198c57600084828151811061192257fe5b6020908102919091018101516001600160e01b031981166000908152918690526040909120549091506001600160a01b031680156119725760405162461bcd60e51b815260040161012990612f9e565b61197e8583868a611d7c565b50506001918201910161190b565b5050505050565b60008151116119b45760405162461bcd60e51b815260040161012990612bb0565b60006119be611669565b90506001600160a01b0383166119e65760405162461bcd60e51b815260040161012990612d7b565b6001600160a01b03831660009081526001820160205260409020546001600160601b038116611a1957611a198285611d34565b60005b835181101561198c576000848281518110611a3357fe5b6020908102919091018101516001600160e01b031981166000908152918690526040909120549091506001600160a01b03908116908716811415611a895760405162461bcd60e51b815260040161012990613050565b611a94858284611e1c565b611aa08583868a611d7c565b505060019182019101611a1c565b6000815111611acf5760405162461bcd60e51b815260040161012990612bb0565b6000611ad9611669565b90506001600160a01b03831615611b025760405162461bcd60e51b8152600401610129906130ad565b60005b825181101561183c576000838281518110611b1c57fe5b6020908102919091018101516001600160e01b031981166000908152918590526040909120549091506001600160a01b0316611b59848284611e1c565b5050600101611b05565b6001600160a01b038216611b9557805115611b905760405162461bcd60e51b815260040161012990612a9e565b610f9c565b6000815111611bb65760405162461bcd60e51b815260040161012990612ef3565b600080836001600160a01b031683604051611bd1919061283d565b600060405180830381855af49150503d8060008114611c0c576040519150601f19603f3d011682016040523d82523d6000602084013e611c11565b606091505b50915091508161183c57805115611c3c578060405162461bcd60e51b81526004016101299190612a8b565b60405162461bcd60e51b815260040161012990612afb565b6040516370a0823160e01b81526000906001600160a01b038416906370a0823190611c8390859060040161288e565b60206040518083038186803b158015611c9b57600080fd5b505afa158015611caf573d6000803e3d6000fd5b505050506040513d601f19601f82011682018060405250810190611cd39190612725565b9392505050565b604080516001600160a01b0380861660248301528416604482015260648082018490528251808303909101815260849091019091526020810180516001600160e01b03166323b872dd60e01b17905261183c908590612107565b6002820180546001600160a01b0390921660008181526001948501602090815260408220860185905594840183559182529290200180546001600160a01b0319169091179055565b6001600160e01b0319831660008181526020868152604080832080546001600160601b03909716600160a01b026001600160a01b0397881617815594909516808352600180890183529583208054968701815583528183206008870401805460e09890981c60046007909816979097026101000a96870263ffffffff9097021990971695909517909555529290915281546001600160a01b031916179055565b6001600160a01b038216611e425760405162461bcd60e51b815260040161012990612bfb565b6001600160a01b038216301415611e6b5760405162461bcd60e51b815260040161012990612f50565b6001600160e01b03198116600090815260208481526040808320546001600160a01b03861684526001870190925290912054600160a01b9091046001600160601b03169060001901808214611f97576001600160a01b03841660009081526001860160205260408120805483908110611ee057fe5b600091825260208083206008830401546001600160a01b038916845260018a019091526040909220805460079092166004026101000a90920460e01b925082919085908110611f2b57fe5b600091825260208083206008830401805463ffffffff60079094166004026101000a938402191660e09590951c929092029390931790556001600160e01b03199290921682528690526040902080546001600160a01b0316600160a01b6001600160601b038516021790555b6001600160a01b03841660009081526001860160205260409020805480611fba57fe5b60008281526020808220600860001990940193840401805463ffffffff600460078716026101000a0219169055919092556001600160e01b03198516825286905260408120558061198c5760028501546001600160a01b0385166000908152600187810160205260409091200154600019909101908082146120b157600087600201838154811061204757fe5b6000918252602090912001546002890180546001600160a01b03909216925082918490811061207257fe5b600091825260208083209190910180546001600160a01b0319166001600160a01b03948516179055929091168152600189810190925260409020018190555b866002018054806120be57fe5b60008281526020808220830160001990810180546001600160a01b03191690559092019092556001600160a01b0388168252600189810190915260408220015550505050505050565b600061215c826040518060400160405280602081526020017f5361666545524332303a206c6f772d6c6576656c2063616c6c206661696c6564815250856001600160a01b03166121b89092919063ffffffff16565b8051909150156116645780806020019051602081101561217b57600080fd5b50516116645760405162461bcd60e51b815260040180806020018281038252602a81526020018061319d602a913960400191505060405180910390fd5b60606121c784846000856121cf565b949350505050565b6060824710156122105760405162461bcd60e51b81526004018080602001828103825260268152602001806131776026913960400191505060405180910390fd5b6122198561232a565b61226a576040805162461bcd60e51b815260206004820152601d60248201527f416464726573733a2063616c6c20746f206e6f6e2d636f6e7472616374000000604482015290519081900360640190fd5b600080866001600160a01b031685876040518082805190602001908083835b602083106122a85780518252601f199092019160209182019101612289565b6001836020036101000a03801982511681845116808217855250505050505090500191505060006040518083038185875af1925050503d806000811461230a576040519150601f19603f3d011682016040523d82523d6000602084013e61230f565b606091505b509150915061231f828286612330565b979650505050505050565b3b151590565b6060831561233f575081611cd3565b82511561234f5782518084602001fd5b8160405162461bcd60e51b81526004018080602001828103825283818151815260200191508051906020019080838360005b83811015612399578181015183820152602001612381565b50505050905090810190601f1680156123c65780820380516001836020036101000a031916815260200191505b509250505060405180910390fd5b828054600181600116156101000203166002900490600052602060002090601f01602090048101928261240a5760008555612450565b82601f1061242357805160ff1916838001178555612450565b82800160010185558215612450579182015b82811115612450578251825591602001919060010190612435565b5061245c92915061247a565b5090565b5080546000825590600052602060002090810190610f9e91905b5b8082111561245c576000815560010161247b565b600082601f83011261249f578081fd5b813567ffffffffffffffff8111156124b357fe5b6124c6601f8201601f1916602001613103565b8181528460208386010111156124da578283fd5b816020850160208301379081016020019190915292915050565b600060208284031215612505578081fd5b8135611cd381613153565b600060208284031215612521578081fd5b8151611cd381613153565b60008060008060808587031215612541578283fd5b843561254c81613153565b9350602085013561255c81613153565b9250604085013561256c81613153565b9150606085013561257c81613153565b939692955090935050565b6000806000806080858703121561259c578384fd5b84356125a781613153565b935060208501356125b781613153565b925060408501359150606085013567ffffffffffffffff8111156125d9578182fd5b6125e58782880161248f565b91505092959194509250565b60008060408385031215612603578182fd5b823561260e81613153565b946020939093013593505050565b600080600060608486031215612630578283fd5b833561263b81613153565b95602085013595506040909401359392505050565b60006020808385031215612662578182fd5b825167ffffffffffffffff80821115612679578384fd5b818501915085601f83011261268c578384fd5b81518181111561269857fe5b83810291506126a8848301613103565b8181528481019084860184860187018a10156126c2578788fd5b8795505b838610156126e45780518352600195909501949186019186016126c6565b5098975050505050505050565b600060208284031215612702578081fd5b8151611cd381613168565b60006020828403121561271e578081fd5b5035919050565b600060208284031215612736578081fd5b5051919050565b6000806040838503121561274f578182fd5b82359150602083013561276181613153565b809150509250929050565b600080600060608486031215612780578283fd5b83359250602084013561279281613153565b915060408401356127a281613168565b809150509250925092565b6000806000606084860312156127c1578081fd5b8335925060208401356127d381613153565b9150604084013567ffffffffffffffff8111156127ee578182fd5b6127fa8682870161248f565b9150509250925092565b6001600160a01b03169052565b60008151808452612829816020860160208601613127565b601f01601f19169290920160200192915050565b6000825161284f818460208701613127565b9190910192915050565b6e57697468647261775265636970657360881b8152600f0190565b6d4465706f7369745265636970657360901b8152600e0190565b6001600160a01b0391909116815260200190565b6001600160a01b0392831681529116602082015260400190565b6001600160a01b039384168152919092166020820152604081019190915260600190565b6001600160a01b03929092168252602082015260400190565b6001600160a01b0393909316835260208301919091521515604082015260600190565b606080825284518282018190526000919060809081850190602080820287018401818b01875b848110156129d457898303607f19018652815180516001600160a01b0316845284810151898501906003811061297457fe5b858701526040918201519185018a9052815190819052908501908a90898601905b808310156129bf5783516001600160e01b0319168252928701926001929092019190870190612995565b50978601979450505090830190600101612942565b50506129e28289018b612804565b87810360408901526129f4818a612811565b9b9a5050505050505050505050565b6020808252825182820181905260009190848201906040850190845b81811015612a3b57835183529284019291840191600101612a1f565b50909695505050505050565b901515815260200190565b60008315158252604060208301526121c76040830184612811565b90815260200190565b6001600160e01b031991909116815260200190565b600060208252611cd36020830184612811565b6020808252603c908201527f4c69624469616d6f6e644375743a205f696e697420697320616464726573732860408201527f3029206275745f63616c6c64617461206973206e6f7420656d70747900000000606082015260800190565b60208082526026908201527f4c69624469616d6f6e644375743a205f696e69742066756e6374696f6e2072656040820152651d995c9d195960d21b606082015260800190565b60208082526049908201527f506f736974696f6e4d616e616765723a3a696e69743a204f6e6c7920506f736960408201527f74696f6e4d616e61676572466163746f72792063616e20696e697420746869736060820152680818dbdb9d1c9858dd60ba1b608082015260a00190565b6020808252602b908201527f4c69624469616d6f6e644375743a204e6f2073656c6563746f727320696e206660408201526a1858d95d081d1bc818dd5d60aa1b606082015260800190565b60208082526037908201527f4c69624469616d6f6e644375743a2043616e27742072656d6f76652066756e6360408201527f74696f6e207468617420646f65736e2774206578697374000000000000000000606082015260800190565b60208082526043908201527f506f736974696f6e4d616e616765723a3a707573684f6c64506f736974696f6e60408201527f446174613a20706f736974696f6e53686172657320646f6573206e6f742065786060820152621a5cdd60ea1b608082015260a00190565b6020808252604d908201527f506f736974696f6e4d616e616765723a3a6f6e6c794f776e6564506f7369746960408201527f6f6e3a20706f736974696f6e4d616e61676572206973206e6f74206f776e657260608201526c1037b3103a3432903a37b5b2b760991b608082015260a00190565b60208082526027908201527f4c69624469616d6f6e644375743a20496e636f727265637420466163657443756040820152663a20b1ba34b7b760c91b606082015260800190565b6020808252602c908201527f4c69624469616d6f6e644375743a204164642066616365742063616e2774206260408201526b65206164647265737328302960a01b606082015260800190565b60208082526042908201527f506f736974696f6e4d616e616765723a3a6765744f6c64506f736974696f6e4460408201527f6174613a20706f736974696f6e53686172657320646f6573206e6f74206578696060820152611cdd60f21b608082015260a00190565b60208082526032908201527f506f736974696f6e4d616e616765723a3a46616c6c6261636b3a2046756e63746040820152711a5bdb88191bd95cc81b9bdd08195e1a5cdd60721b606082015260800190565b6020808252604c908201527f506f736974696f6e4d616e616765723a3a66616c6c6261636b3a204f6e6c792060408201527f77686974656c6973746564206164647265737365732063616e2063616c6c207460608201526b3434b990333ab731ba34b7b760a11b608082015260a00190565b6020808252603d908201527f4c69624469616d6f6e644375743a205f63616c6c6461746120697320656d707460408201527f7920627574205f696e6974206973206e6f742061646472657373283029000000606082015260800190565b6020808252602e908201527f4c69624469616d6f6e644375743a2043616e27742072656d6f766520696d6d7560408201526d3a30b1363290333ab731ba34b7b760911b606082015260800190565b60208082526035908201527f4c69624469616d6f6e644375743a2043616e2774206164642066756e6374696f6040820152746e207468617420616c72656164792065786973747360581b606082015260800190565b6020808252603d908201527f506f736974696f6e4d616e616765723a3a6f6e6c794f776e65723a204f6e6c7960408201527f206f776e65722063616e2063616c6c20746869732066756e6374696f6e000000606082015260800190565b60208082526038908201527f4c69624469616d6f6e644375743a2043616e2774207265706c6163652066756e60408201527f6374696f6e20776974682073616d652066756e6374696f6e0000000000000000606082015260800190565b60208082526036908201527f4c69624469616d6f6e644375743a2052656d6f76652066616365742061646472604082015275657373206d757374206265206164647265737328302960501b606082015260800190565b60405181810167ffffffffffffffff8111828210171561311f57fe5b604052919050565b60005b8381101561314257818101518382015260200161312a565b8381111561183c5750506000910152565b6001600160a01b0381168114610f9e57600080fd5b8015158114610f9e57600080fdfe416464726573733a20696e73756666696369656e742062616c616e636520666f722063616c6c5361666545524332303a204552433230206f7065726174696f6e20646964206e6f742073756363656564a2646970667358221220f2c91c91f96b93dee574067dc2e217e64e100eb9aea206f3120306356b52e74f64736f6c63430007060033a2646970667358221220e4d7e657309b80729ef9ebb8e5dd82a62b4f11af135ae9d04786476705e4140264736f6c63430007060033",
  "devdoc": {
    "events": {
      "PositionManagerCreated(address,address)": {
        "params": {
          "positionManager": "address of PositionManager",
          "user": "address of user"
        }
      }
    },
    "kind": "dev",
    "methods": {
      "changeGovernance(address)": {
        "params": {
          "_governance": "address of the new governance"
        }
      },
      "create()": {
        "returns": {
          "_0": "address[] return array of PositionManager address updated with the last deployed PositionManager"
        }
      },
      "getAllPositionManagers()": {
        "details": "array need to return with a custom function to get all the array",
        "returns": {
          "_0": "address[] return the array of positionManager"
        }
      },
      "pushActionData(address,bytes4[])": {
        "params": {
          "actionAddress": "address of the action",
          "selectors": "action selectors"
        }
      }
    },
    "version": 1
  },
  "userdoc": {
    "events": {
      "PositionManagerCreated(address,address)": {
        "notice": "emitted when a new position manager is created"
      }
    },
    "kind": "user",
    "methods": {
      "changeGovernance(address)": {
        "notice": "changes the address of the governance"
      },
      "create()": {
        "notice": "deploy new positionManager and assign to userAddress"
      },
      "getAllPositionManagers()": {
        "notice": "get all positionManager array of address"
      },
      "pushActionData(address,bytes4[])": {
        "notice": "adds a new action to the factory"
      }
    },
    "version": 1
  },
  "storageLayout": {
    "storage": [
      {
        "astId": 4607,
        "contract": "contracts/PositionManagerFactory.sol:PositionManagerFactory",
        "label": "governance",
        "offset": 0,
        "slot": "0",
        "type": "t_address"
      },
      {
        "astId": 4609,
        "contract": "contracts/PositionManagerFactory.sol:PositionManagerFactory",
        "label": "diamondCutFacet",
        "offset": 0,
        "slot": "1",
        "type": "t_address"
      },
      {
        "astId": 4611,
        "contract": "contracts/PositionManagerFactory.sol:PositionManagerFactory",
        "label": "uniswapAddressHolder",
        "offset": 0,
        "slot": "2",
        "type": "t_address"
      },
      {
        "astId": 4613,
        "contract": "contracts/PositionManagerFactory.sol:PositionManagerFactory",
        "label": "aaveAddressHolder",
        "offset": 0,
        "slot": "3",
        "type": "t_address"
      },
      {
        "astId": 4615,
        "contract": "contracts/PositionManagerFactory.sol:PositionManagerFactory",
        "label": "registry",
        "offset": 0,
        "slot": "4",
        "type": "t_address"
      },
      {
        "astId": 4618,
        "contract": "contracts/PositionManagerFactory.sol:PositionManagerFactory",
        "label": "positionManagers",
        "offset": 0,
        "slot": "5",
        "type": "t_array(t_address)dyn_storage"
      },
      {
        "astId": 4621,
        "contract": "contracts/PositionManagerFactory.sol:PositionManagerFactory",
        "label": "actions",
        "offset": 0,
        "slot": "6",
        "type": "t_array(t_struct(FacetCut)11678_storage)dyn_storage"
      },
      {
        "astId": 4626,
        "contract": "contracts/PositionManagerFactory.sol:PositionManagerFactory",
        "label": "userToPositionManager",
        "offset": 0,
        "slot": "7",
        "type": "t_mapping(t_address,t_address)"
      }
    ],
    "types": {
      "t_address": {
        "encoding": "inplace",
        "label": "address",
        "numberOfBytes": "20"
      },
      "t_array(t_address)dyn_storage": {
        "base": "t_address",
        "encoding": "dynamic_array",
        "label": "address[]",
        "numberOfBytes": "32"
      },
      "t_array(t_bytes4)dyn_storage": {
        "base": "t_bytes4",
        "encoding": "dynamic_array",
        "label": "bytes4[]",
        "numberOfBytes": "32"
      },
      "t_array(t_struct(FacetCut)11678_storage)dyn_storage": {
        "base": "t_struct(FacetCut)11678_storage",
        "encoding": "dynamic_array",
        "label": "struct IDiamondCut.FacetCut[]",
        "numberOfBytes": "32"
      },
      "t_bytes4": {
        "encoding": "inplace",
        "label": "bytes4",
        "numberOfBytes": "4"
      },
      "t_enum(FacetCutAction)11670": {
        "encoding": "inplace",
        "label": "enum IDiamondCut.FacetCutAction",
        "numberOfBytes": "1"
      },
      "t_mapping(t_address,t_address)": {
        "encoding": "mapping",
        "key": "t_address",
        "label": "mapping(address => address)",
        "numberOfBytes": "32",
        "value": "t_address"
      },
      "t_struct(FacetCut)11678_storage": {
        "encoding": "inplace",
        "label": "struct IDiamondCut.FacetCut",
        "members": [
          {
            "astId": 11672,
            "contract": "contracts/PositionManagerFactory.sol:PositionManagerFactory",
            "label": "facetAddress",
            "offset": 0,
            "slot": "0",
            "type": "t_address"
          },
          {
            "astId": 11674,
            "contract": "contracts/PositionManagerFactory.sol:PositionManagerFactory",
            "label": "action",
            "offset": 20,
            "slot": "0",
            "type": "t_enum(FacetCutAction)11670"
          },
          {
            "astId": 11677,
            "contract": "contracts/PositionManagerFactory.sol:PositionManagerFactory",
            "label": "functionSelectors",
            "offset": 0,
            "slot": "1",
            "type": "t_array(t_bytes4)dyn_storage"
          }
        ],
        "numberOfBytes": "64"
      }
    }
  }
}