{
  "address": "0xe039608E695D21aB11675EBBA00261A0e750526c",
  "abi": [
    {
      "anonymous": false,
      "inputs": [
        {
          "indexed": true,
          "internalType": "address",
          "name": "positionManager",
          "type": "address"
        },
        {
          "indexed": false,
          "internalType": "uint256",
          "name": "tokenId",
          "type": "uint256"
        },
        {
          "indexed": false,
          "internalType": "uint256",
          "name": "token0",
          "type": "uint256"
        },
        {
          "indexed": false,
          "internalType": "uint256",
          "name": "token1",
          "type": "uint256"
        }
      ],
      "name": "FeesUpdated",
      "type": "event"
    },
    {
      "inputs": [
        {
          "internalType": "uint256",
          "name": "tokenId",
          "type": "uint256"
        }
      ],
      "name": "updateUncollectedFees",
      "outputs": [
        {
          "internalType": "uint256",
          "name": "",
          "type": "uint256"
        },
        {
          "internalType": "uint256",
          "name": "",
          "type": "uint256"
        }
      ],
      "stateMutability": "nonpayable",
      "type": "function"
    }
  ],
  "transactionHash": "0x4a78877c3af3b1f137f45c6301b48965ee51d4ce51f9298ec5b302681eed7884",
  "args": [],
  "numDeployments": 1,
  "solcInputHash": "e37913ab496d937cc6477b2e54359c29",
  "bytecode": "0x608060405234801561001057600080fd5b506104ec806100206000396000f3fe608060405234801561001057600080fd5b506004361061002b5760003560e01c806384d9279714610030575b600080fd5b61004361003e366004610323565b61005a565b6040516100519291906104a8565b60405180910390f35b6000806000610067610286565b905060008160030160009054906101000a90046001600160a01b03166001600160a01b0316635bfccac96040518163ffffffff1660e01b815260040160206040518083038186803b1580156100bb57600080fd5b505afa1580156100cf573d6000803e3d6000fd5b505050506040513d601f19601f820116820180604052508101906100f39190610302565b6040805160a08101825287815260016020820152600081830181905260608201526078420160808201529051630624e65f60e11b81529192506001600160a01b03831691630c49ccbe916101499160040161043d565b6040805180830381600087803b15801561016257600080fd5b505af1158015610176573d6000803e3d6000fd5b505050506040513d601f19601f8201168201806040525081019061019a919061033b565b5050600080826001600160a01b03166399fbab88886040518263ffffffff1660e01b81526004016101cb9190610480565b6101806040518083038186803b1580156101e457600080fd5b505afa1580156101f8573d6000803e3d6000fd5b505050506040513d601f19601f8201168201806040525081019061021c919061035e565b9b509b5050505050505050505050306001600160a01b03167f278088f6d88fba0cb59368a9a6540a03aeada1e0d290b987dd2ad530b40af49e88848460405161026793929190610489565b60405180910390a26001600160801b0391821695501692505050915091565b7fd5aa5c52d76b5d2be1bece4b96c91e533fe2611adb0c19cf868dadf921fc13b890565b80516001600160a01b03811681146102c157600080fd5b919050565b8051600281900b81146102c157600080fd5b80516001600160801b03811681146102c157600080fd5b805162ffffff811681146102c157600080fd5b600060208284031215610313578081fd5b61031c826102aa565b9392505050565b600060208284031215610334578081fd5b5035919050565b6000806040838503121561034d578081fd5b505080516020909101519092909150565b6000806000806000806000806000806000806101808d8f031215610380578788fd5b8c516bffffffffffffffffffffffff8116811461039b578889fd5b9b506103a960208e016102aa565b9a506103b760408e016102aa565b99506103c560608e016102aa565b98506103d360808e016102ef565b97506103e160a08e016102c6565b96506103ef60c08e016102c6565b95506103fd60e08e016102d8565b94506101008d015193506101208d0151925061041c6101408e016102d8565b915061042b6101608e016102d8565b90509295989b509295989b509295989b565b600060a082019050825182526001600160801b03602084015116602083015260408301516040830152606083015160608301526080830151608083015292915050565b90815260200190565b9283526001600160801b03918216602084015216604082015260600190565b91825260208201526040019056fea2646970667358221220bdfc3d010864d4c07239045b2268361ba41536cfdd5c147aea8fff7e01b46aad64736f6c63430007060033",
  "devdoc": {
    "events": {
      "FeesUpdated(address,uint256,uint256,uint256)": {
        "params": {
          "positionManager": "address of PositionManager",
          "token0": "fee collected",
          "token1": "fee collected",
          "tokenId": "Id of the updated position"
        }
      }
    },
    "kind": "dev",
    "methods": {
      "updateUncollectedFees(uint256)": {
        "params": {
          "tokenId": "ID of the NFT"
        },
        "returns": {
          "_0": "uint256 token0 fee collected",
          "_1": "uint256 token1 fee collected"
        }
      }
    },
    "version": 1
  },
  "userdoc": {
    "events": {
      "FeesUpdated(address,uint256,uint256,uint256)": {
        "notice": "emitted when a UniswapNFT position is updated"
      }
    },
    "kind": "user",
    "methods": {
      "updateUncollectedFees(uint256)": {
        "notice": "update the uncollected fees of a UniswapV3 position NFT"
      }
    },
    "version": 1
  },
  "storageLayout": {
    "storage": [],
    "types": null
  }
}