{
  "address": "0x139e1D41943ee15dDe4DF876f9d0E7F85e26660A",
  "abi": [
    {
      "inputs": [
        {
          "internalType": "address",
          "name": "_positionManagerFactory",
          "type": "address"
        },
        {
          "internalType": "address",
          "name": "_uniswapAddressHolder",
          "type": "address"
        }
      ],
      "stateMutability": "nonpayable",
      "type": "constructor"
    },
    {
      "inputs": [
        {
          "internalType": "uint256",
          "name": "tokenId",
          "type": "uint256"
        },
        {
          "internalType": "uint256",
          "name": "partToWithdraw",
          "type": "uint256"
        }
      ],
      "name": "withdrawUniNft",
      "outputs": [],
      "stateMutability": "nonpayable",
      "type": "function"
    },
    {
      "inputs": [
        {
          "internalType": "uint256",
          "name": "tokenId",
          "type": "uint256"
        },
        {
          "internalType": "address",
          "name": "tokenOut",
          "type": "address"
        }
      ],
      "name": "zapOutUniNft",
      "outputs": [],
      "stateMutability": "nonpayable",
      "type": "function"
    }
  ],
  "transactionHash": "0x23ac86864be5c022c6572742e0683875ea7a2c6ebf360d3c104234b13d0c7673",
  "args": [
    "0x821f3361D454cc98b7555221A06Be563a7E2E0A6",
    "0x045857BDEAE7C1c7252d611eB24eB55564198b4C"
  ],
  "numDeployments": 1,
  "solcInputHash": "e37913ab496d937cc6477b2e54359c29",
  "bytecode": "0x608060405234801561001057600080fd5b5060405161135438038061135483398101604081905261002f9161007c565b600080546001600160a01b039384166001600160a01b031991821617909155600180549290931691161790556100ae565b80516001600160a01b038116811461007757600080fd5b919050565b6000806040838503121561008e578182fd5b61009783610060565b91506100a560208401610060565b90509250929050565b611297806100bd6000396000f3fe608060405234801561001057600080fd5b50600436106100365760003560e01c80633e293da11461003b578063f4dd6cbb14610050575b600080fd5b61004e610049366004610ffd565b610063565b005b61004e61005e36600461102c565b610167565b60005460405163c81e0f9160e01b81526001600160a01b039091169063c81e0f919061009390339060040161117c565b60206040518083038186803b1580156100ab57600080fd5b505afa1580156100bf573d6000803e3d6000fd5b505050506040513d601f19601f820116820180604052508101906100e39190610efe565b6001600160a01b0316631267d11583836040518363ffffffff1660e01b815260040161011092919061120c565b602060405180830381600087803b15801561012a57600080fd5b505af115801561013e573d6000803e3d6000fd5b505050506040513d601f19601f820116820180604052508101906101629190610fe5565b505050565b60008111801561017957506127108111155b61019e5760405162461bcd60e51b815260040161019590611190565b60405180910390fd5b8061271014156102b05760005460405163c81e0f9160e01b81526001600160a01b039091169063c81e0f91906101d890339060040161117c565b60206040518083038186803b1580156101f057600080fd5b505afa158015610204573d6000803e3d6000fd5b505050506040513d601f19601f820116820180604052508101906102289190610efe565b6001600160a01b031663e4a60d458360016040518363ffffffff1660e01b8152600401610256929190611223565b606060405180830381600087803b15801561027057600080fd5b505af1158015610284573d6000803e3d6000fd5b505050506040513d601f19601f820116820180604052508101906102a89190611070565b5050506105e0565b6000806103c884600160009054906101000a90046001600160a01b03166001600160a01b0316635bfccac96040518163ffffffff1660e01b815260040160206040518083038186803b15801561030557600080fd5b505afa158015610319573d6000803e3d6000fd5b505050506040513d601f19601f8201168201806040525081019061033d9190610efe565b600160009054906101000a90046001600160a01b03166001600160a01b03166380f5db8c6040518163ffffffff1660e01b815260040160206040518083038186803b15801561038b57600080fd5b505afa15801561039f573d6000803e3d6000fd5b505050506040513d601f19601f820116820180604052508101906103c39190610efe565b6105e4565b60005460405163c81e0f9160e01b81529294509092506001600160a01b03169063c81e0f91906103fc90339060040161117c565b60206040518083038186803b15801561041457600080fd5b505afa158015610428573d6000803e3d6000fd5b505050506040513d601f19601f8201168201806040525081019061044c9190610efe565b6001600160a01b0316638e9cd3718561271085870204612710858802046040518463ffffffff1660e01b815260040161048793929190611233565b606060405180830381600087803b1580156104a157600080fd5b505af11580156104b5573d6000803e3d6000fd5b505050506040513d601f19601f820116820180604052508101906104d99190610f1a565b505060005460405163c81e0f9160e01b81526001600160a01b03909116915063c81e0f919061050c90339060040161117c565b60206040518083038186803b15801561052457600080fd5b505afa158015610538573d6000803e3d6000fd5b505050506040513d601f19601f8201168201806040525081019061055c9190610efe565b6001600160a01b0316633a483cb08560016040518363ffffffff1660e01b815260040161058a929190611223565b6040805180830381600087803b1580156105a357600080fd5b505af11580156105b7573d6000803e3d6000fd5b505050506040513d601f19601f820116820180604052508101906105db919061104d565b505050505b5050565b6000806000806000866001600160a01b03166399fbab88896040518263ffffffff1660e01b81526004016106189190611203565b6101806040518083038186803b15801561063157600080fd5b505afa158015610645573d6000803e3d6000fd5b505050506040513d601f19601f82011682018060405250810190610669919061109d565b50505050975097509750505050505061068e8184846106898c8c8c61069d565b610748565b94509450505050935093915050565b600080600080856001600160a01b03166399fbab88886040518263ffffffff1660e01b81526004016106cf9190611203565b6101806040518083038186803b1580156106e857600080fd5b505afa1580156106fc573d6000803e3d6000fd5b505050506040513d601f19601f82011682018060405250810190610720919061109d565b50505050505050945094509450505061073b858484846107f7565b93505050505b9392505050565b60008060008390506000816001600160a01b0316633850c7bd6040518163ffffffff1660e01b815260040160e06040518083038186803b15801561078b57600080fd5b505afa15801561079f573d6000803e3d6000fd5b505050506040513d601f19601f820116820180604052508101906107c39190610f4e565b50505050505090506107e7816107d889610816565b6107e189610816565b8b610b48565b9350935050505b94509492505050565b600061080d85610808868686610be3565b610c39565b95945050505050565b60008060008360020b1261082d578260020b610835565b8260020b6000035b9050620d89e8811115610873576040805162461bcd60e51b81526020600482015260016024820152601560fa1b604482015290519081900360640190fd5b60006001821661088757600160801b610899565b6ffffcb933bd6fad37aa2d162d1a5940015b70ffffffffffffffffffffffffffffffffff16905060028216156108cd576ffff97272373d413259a46990580e213a0260801c5b60048216156108ec576ffff2e50f5f656932ef12357cf3c7fdcc0260801c5b600882161561090b576fffe5caca7e10e4e61c3624eaa0941cd00260801c5b601082161561092a576fffcb9843d60f6159c9db58835c9266440260801c5b6020821615610949576fff973b41fa98c081472e6896dfb254c00260801c5b6040821615610968576fff2ea16466c96a3843ec78b326b528610260801c5b6080821615610987576ffe5dee046a99a2a811c461f1969c30530260801c5b6101008216156109a7576ffcbe86c7900a88aedcffc83b479aa3a40260801c5b6102008216156109c7576ff987a7253ac413176f2b074cf7815e540260801c5b6104008216156109e7576ff3392b0822b70005940c7a398e4b70f30260801c5b610800821615610a07576fe7159475a2c29b7443b29c7fa6e889d90260801c5b611000821615610a27576fd097f3bdfd2022b8845ad8f792aa58250260801c5b612000821615610a47576fa9f746462d870fdf8a65dc1f90e061e50260801c5b614000821615610a67576f70d869a156d2a1b890bb3df62baf32f70260801c5b618000821615610a87576f31be135f97d08fd981231505542fcfa60260801c5b62010000821615610aa8576f09aa508b5b7a84e1c677de54f3e99bc90260801c5b62020000821615610ac8576e5d6af8dedb81196699c329225ee6040260801c5b62040000821615610ae7576d2216e584f5fa1ea926041bedfe980260801c5b62080000821615610b04576b048a170391f7dc42444e8fa20260801c5b60008460020b1315610b1f578060001981610b1b57fe5b0490505b640100000000810615610b33576001610b36565b60005b60ff16602082901c0192505050919050565b600080836001600160a01b0316856001600160a01b03161115610b69579293925b846001600160a01b0316866001600160a01b031611610b9457610b8d858585610d1d565b91506107ee565b836001600160a01b0316866001600160a01b03161015610bcd57610bb9868585610d1d565b9150610bc6858785610d86565b90506107ee565b610bd8858585610d86565b905094509492505050565b610beb610e80565b826001600160a01b0316846001600160a01b03161115610c09579192915b50604080516060810182526001600160a01b03948516815292909316602083015262ffffff169181019190915290565b600081602001516001600160a01b031682600001516001600160a01b031610610c6157600080fd5b50805160208083015160409384015184516001600160a01b0394851681850152939091168385015262ffffff166060808401919091528351808403820181526080840185528051908301206001600160f81b031960a085015294901b6bffffffffffffffffffffffff191660a183015260b58201939093527fe34f199b19b2b4f47f68442619d555527d244f78a3297ea89325f843f87b8b5460d5808301919091528251808303909101815260f5909101909152805191012090565b6000826001600160a01b0316846001600160a01b03161115610d3d579192915b836001600160a01b0316610d76606060ff16846001600160801b0316901b8686036001600160a01b0316866001600160a01b0316610dd1565b81610d7d57fe5b04949350505050565b6000826001600160a01b0316846001600160a01b03161115610da6579192915b610dc9826001600160801b03168585036001600160a01b0316600160601b610dd1565b949350505050565b6000808060001985870986860292508281109083900303905080610e075760008411610dfc57600080fd5b508290049050610741565b808411610e1357600080fd5b6000848688096000868103871696879004966002600389028118808a02820302808a02820302808a02820302808a02820302808a02820302808a02909103029181900381900460010186841190950394909402919094039290920491909117919091029150509392505050565b604080516060810182526000808252602082018190529181019190915290565b8051610eab81611249565b919050565b8051600281900b8114610eab57600080fd5b80516001600160801b0381168114610eab57600080fd5b805161ffff81168114610eab57600080fd5b805162ffffff81168114610eab57600080fd5b600060208284031215610f0f578081fd5b815161074181611249565b600080600060608486031215610f2e578182fd5b610f3784610ec2565b925060208401519150604084015190509250925092565b600080600080600080600060e0888a031215610f68578283fd5b8751610f7381611249565b9650610f8160208901610eb0565b9550610f8f60408901610ed9565b9450610f9d60608901610ed9565b9350610fab60808901610ed9565b925060a088015160ff81168114610fc0578283fd5b60c08901519092508015158114610fd5578182fd5b8091505092959891949750929550565b600060208284031215610ff6578081fd5b5051919050565b6000806040838503121561100f578182fd5b82359150602083013561102181611249565b809150509250929050565b6000806040838503121561103e578182fd5b50508035926020909101359150565b6000806040838503121561105f578182fd5b505080516020909101519092909150565b600080600060608486031215611084578283fd5b8351925060208401519150604084015190509250925092565b6000806000806000806000806000806000806101808d8f0312156110bf578485fd5b8c516bffffffffffffffffffffffff811681146110da578586fd5b9b506110e860208e01610ea0565b9a506110f660408e01610ea0565b995061110460608e01610ea0565b985061111260808e01610eeb565b975061112060a08e01610eb0565b965061112e60c08e01610eb0565b955061113c60e08e01610ec2565b94506101008d015193506101208d0151925061115b6101408e01610ec2565b915061116a6101608e01610ec2565b90509295989b509295989b509295989b565b6001600160a01b0391909116815260200190565b6020808252604d908201527f5769746864726177526563697065733a3a7769746864726177556e694e66743a60408201527f207061727420746f207769746864726177206d7573742062652062657477656560608201526c06e203020616e6420313030303609c1b608082015260a00190565b90815260200190565b9182526001600160a01b0316602082015260400190565b9182521515602082015260400190565b9283526020830191909152604082015260600190565b6001600160a01b038116811461125e57600080fd5b5056fea2646970667358221220172bf2bf4730ce8cc02d631221be1c9272299166391d886b9c6759a7499f5d8764736f6c63430007060033",
  "devdoc": {
    "kind": "dev",
    "methods": {
      "withdrawUniNft(uint256,uint256)": {
        "params": {
          "partToWithdraw": "percentage of token to withdraw in base points",
          "tokenId": "ID of deposited token"
        }
      },
      "zapOutUniNft(uint256,address)": {
        "params": {
          "tokenId": "ID of the token to withdraw",
          "tokenOut": "address of the token to withdraw"
        }
      }
    },
    "version": 1
  },
  "userdoc": {
    "kind": "user",
    "methods": {
      "withdrawUniNft(uint256,uint256)": {
        "notice": "remove uniswap position NFT to the position manager"
      },
      "zapOutUniNft(uint256,address)": {
        "notice": "remove a position from positionmanager zapping out"
      }
    },
    "notice": "WithdrawRecipes allows user to withdraw positions from PositionManager",
    "version": 1
  },
  "storageLayout": {
    "storage": [
      {
        "astId": 11383,
        "contract": "contracts/utils/WithdrawRecipes.sol:WithdrawRecipes",
        "label": "positionManagerFactory",
        "offset": 0,
        "slot": "0",
        "type": "t_contract(IPositionManagerFactory)12349"
      },
      {
        "astId": 11385,
        "contract": "contracts/utils/WithdrawRecipes.sol:WithdrawRecipes",
        "label": "uniswapAddressHolder",
        "offset": 0,
        "slot": "1",
        "type": "t_contract(IUniswapAddressHolder)12460"
      }
    ],
    "types": {
      "t_contract(IPositionManagerFactory)12349": {
        "encoding": "inplace",
        "label": "contract IPositionManagerFactory",
        "numberOfBytes": "20"
      },
      "t_contract(IUniswapAddressHolder)12460": {
        "encoding": "inplace",
        "label": "contract IUniswapAddressHolder",
        "numberOfBytes": "20"
      }
    }
  }
}