{
  "address": "0xe70f935c32dA4dB13e7876795f1e175465e6458e",
  "abi": [
    {
      "anonymous": false,
      "inputs": [
        {
          "indexed": true,
          "internalType": "address",
          "name": "positionManager",
          "type": "address"
        },
        {
          "indexed": false,
          "internalType": "uint256",
          "name": "tokenId",
          "type": "uint256"
        },
        {
          "indexed": false,
          "internalType": "address",
          "name": "tokenIn",
          "type": "address"
        },
        {
          "indexed": false,
          "internalType": "uint256",
          "name": "amountIn",
          "type": "uint256"
        }
      ],
      "name": "ZappedIn",
      "type": "event"
    },
    {
      "inputs": [
        {
          "internalType": "address",
          "name": "tokenIn",
          "type": "address"
        },
        {
          "internalType": "uint256",
          "name": "amountIn",
          "type": "uint256"
        },
        {
          "internalType": "address",
          "name": "token0",
          "type": "address"
        },
        {
          "internalType": "address",
          "name": "token1",
          "type": "address"
        },
        {
          "internalType": "int24",
          "name": "tickLower",
          "type": "int24"
        },
        {
          "internalType": "int24",
          "name": "tickUpper",
          "type": "int24"
        },
        {
          "internalType": "uint24",
          "name": "fee",
          "type": "uint24"
        }
      ],
      "name": "zapIn",
      "outputs": [
        {
          "internalType": "uint256",
          "name": "tokenId",
          "type": "uint256"
        }
      ],
      "stateMutability": "nonpayable",
      "type": "function"
    }
  ],
  "transactionHash": "0x8177fdfd77f95831baa48a569e96df8c7d2ad5fb25ba711f0ad57229eb486442",
  "args": [],
  "numDeployments": 1,
  "solcInputHash": "e37913ab496d937cc6477b2e54359c29",
  "bytecode": "0x608060405234801561001057600080fd5b50611a28806100206000396000f3fe608060405234801561001057600080fd5b506004361061002b5760003560e01c80636c6503cd14610030575b600080fd5b61004361003e3660046115bd565b610059565b6040516100509190611979565b60405180910390f35b6000846001600160a01b0316866001600160a01b031614156100965760405162461bcd60e51b815260040161008d90611810565b60405180910390fd5b6100a086866106bd565b909650945060006100af6106f1565b60048101549091506100cc908a906001600160a01b03168a610715565b5061015f898260030160009054906101000a90046001600160a01b03166001600160a01b03166390fcdb366040518163ffffffff1660e01b815260040160206040518083038186803b15801561012157600080fd5b505afa158015610135573d6000803e3d6000fd5b505050506040513d601f19601f8201168201806040525081019061015991906115a1565b8a610765565b60006101f48260030160009054906101000a90046001600160a01b03166001600160a01b03166380f5db8c6040518163ffffffff1660e01b815260040160206040518083038186803b1580156101b457600080fd5b505afa1580156101c8573d6000803e3d6000fd5b505050506040513d601f19601f820116820180604052508101906101ec91906115a1565b898987610876565b6001600160a01b0316633850c7bd6040518163ffffffff1660e01b815260040160e06040518083038186803b15801561022c57600080fd5b505afa158015610240573d6000803e3d6000fd5b505050506040513d601f19601f82011682018060405250810190610264919061166a565b50505050509150506000610279828888610895565b670de0b6b3a7640000018a670de0b6b3a7640000028161029557fe5b0490506000818b0390506103318c8560030160009054906101000a90046001600160a01b03166001600160a01b03166390fcdb366040518163ffffffff1660e01b815260040160206040518083038186803b1580156102f357600080fd5b505afa158015610307573d6000803e3d6000fd5b505050506040513d601f19601f8201168201806040525081019061032b91906115a1565b8d610765565b896001600160a01b03168c6001600160a01b031614610498578360030160009054906101000a90046001600160a01b03166001600160a01b03166390fcdb366040518163ffffffff1660e01b815260040160206040518083038186803b15801561039a57600080fd5b505afa1580156103ae573d6000803e3d6000fd5b505050506040513d601f19601f820116820180604052508101906103d291906115a1565b60408051610100810182526001600160a01b038f811682528d8116602083015262ffffff8a168284015230606083015260784201608083015260a08201869052600160c0830152600060e0830152915163414bf38960e01b8152929091169163414bf3899161044391600401611862565b602060405180830381600087803b15801561045d57600080fd5b505af1158015610471573d6000803e3d6000fd5b505050506040513d601f19601f8201168201806040525081019061049591906116fb565b91505b886001600160a01b03168c6001600160a01b031614610653576105058c8560030160009054906101000a90046001600160a01b03166001600160a01b03166390fcdb366040518163ffffffff1660e01b815260040160206040518083038186803b1580156102f357600080fd5b8360030160009054906101000a90046001600160a01b03166001600160a01b03166390fcdb366040518163ffffffff1660e01b815260040160206040518083038186803b15801561055557600080fd5b505afa158015610569573d6000803e3d6000fd5b505050506040513d601f19601f8201168201806040525081019061058d91906115a1565b60408051610100810182526001600160a01b038f811682528c8116602083015262ffffff8a168284015230606083015260784201608083015260a08201859052600160c0830152600060e0830152915163414bf38960e01b8152929091169163414bf389916105fe91600401611862565b602060405180830381600087803b15801561061857600080fd5b505af115801561062c573d6000803e3d6000fd5b505050506040513d601f19601f8201168201806040525081019061065091906116fb565b90505b6106628a8a888b8b8787610924565b90505080955050306001600160a01b03167f829c464c46d6d04bd8eeb7bb284dae819c28417166f1707e64fe34d4c664bb4e868e8e6040516106a693929190611982565b60405180910390a250505050979650505050505050565b600080826001600160a01b0316846001600160a01b031611156106e45750819050826106ea565b50829050815b9250929050565b7fd5aa5c52d76b5d2be1bece4b96c91e533fe2611adb0c19cf868dadf921fc13b890565b600080806107238630610c22565b90508381101561075a576107378686610c22565b818503101561075a57808403915061075a6001600160a01b038716863085610ca1565b5090505b9392505050565b604051636eb1769f60e11b815281906001600160a01b0385169063dd62ed3e90610795903090879060040161178c565b60206040518083038186803b1580156107ad57600080fd5b505afa1580156107c1573d6000803e3d6000fd5b505050506040513d601f19601f820116820180604052508101906107e591906116fb565b106107ef57610871565b60405163095ea7b360e01b81526001600160a01b0384169063095ea7b39061081d90859085906004016117a6565b602060405180830381600087803b15801561083757600080fd5b505af115801561084b573d6000803e3d6000fd5b505050506040513d601f19601f8201168201806040525081019061086f9190611650565b505b505050565b600061088c85610887868686610cfb565b610d51565b95945050505050565b60008360020b8360020b1280156108b157508360020b8260020b135b6108cd5760405162461bcd60e51b815260040161008d906117bf565b670de0b6b3a764000060006108e186610e35565b905060006108ee86610e35565b905060006108fb86610e35565b9050600061090a848387611167565b90506109178484836111ca565b9998505050505050505050565b6000806000806109326106f1565b90506109c68b8260030160009054906101000a90046001600160a01b03166001600160a01b0316635bfccac96040518163ffffffff1660e01b815260040160206040518083038186803b15801561098857600080fd5b505afa15801561099c573d6000803e3d6000fd5b505050506040513d601f19601f820116820180604052508101906109c091906115a1565b88610765565b610a588a8260030160009054906101000a90046001600160a01b03166001600160a01b0316635bfccac96040518163ffffffff1660e01b815260040160206040518083038186803b158015610a1a57600080fd5b505afa158015610a2e573d6000803e3d6000fd5b505050506040513d601f19601f82011682018060405250810190610a5291906115a1565b87610765565b60408051610160810182526001600160a01b03808e1682528c811660208084019190915262ffffff8d168385015260028c810b60608501528b900b608084015260a083018a905260c08301899052600060e08401819052610100840152306101208401526078420161014084015260038501548451635bfccac960e01b815294519394921692635bfccac9926004808201939291829003018186803b158015610b0057600080fd5b505afa158015610b14573d6000803e3d6000fd5b505050506040513d601f19601f82011682018060405250810190610b3891906115a1565b6001600160a01b03166388316456826040518263ffffffff1660e01b8152600401610b6391906118cb565b608060405180830381600087803b158015610b7d57600080fd5b505af1158015610b91573d6000803e3d6000fd5b505050506040513d601f19601f82011682018060405250810190610bb59190611713565b60405163ef40278560e01b81529398509096509450309163ef4027859150610be1908890600401611979565b600060405180830381600087803b158015610bfb57600080fd5b505af1158015610c0f573d6000803e3d6000fd5b5050505050509750975097945050505050565b6040516370a0823160e01b81526000906001600160a01b038416906370a0823190610c51908590600401611778565b60206040518083038186803b158015610c6957600080fd5b505afa158015610c7d573d6000803e3d6000fd5b505050506040513d601f19601f8201168201806040525081019061075e91906116fb565b604080516001600160a01b0380861660248301528416604482015260648082018490528251808303909101815260849091019091526020810180516001600160e01b03166323b872dd60e01b17905261086f908590611215565b610d0361155f565b826001600160a01b0316846001600160a01b03161115610d21579192915b50604080516060810182526001600160a01b03948516815292909316602083015262ffffff169181019190915290565b600081602001516001600160a01b031682600001516001600160a01b031610610d7957600080fd5b50805160208083015160409384015184516001600160a01b0394851681850152939091168385015262ffffff166060808401919091528351808403820181526080840185528051908301206001600160f81b031960a085015294901b6bffffffffffffffffffffffff191660a183015260b58201939093527fe34f199b19b2b4f47f68442619d555527d244f78a3297ea89325f843f87b8b5460d5808301919091528251808303909101815260f5909101909152805191012090565b60008060008360020b12610e4c578260020b610e54565b8260020b6000035b9050620d89e8811115610e92576040805162461bcd60e51b81526020600482015260016024820152601560fa1b604482015290519081900360640190fd5b600060018216610ea657600160801b610eb8565b6ffffcb933bd6fad37aa2d162d1a5940015b70ffffffffffffffffffffffffffffffffff1690506002821615610eec576ffff97272373d413259a46990580e213a0260801c5b6004821615610f0b576ffff2e50f5f656932ef12357cf3c7fdcc0260801c5b6008821615610f2a576fffe5caca7e10e4e61c3624eaa0941cd00260801c5b6010821615610f49576fffcb9843d60f6159c9db58835c9266440260801c5b6020821615610f68576fff973b41fa98c081472e6896dfb254c00260801c5b6040821615610f87576fff2ea16466c96a3843ec78b326b528610260801c5b6080821615610fa6576ffe5dee046a99a2a811c461f1969c30530260801c5b610100821615610fc6576ffcbe86c7900a88aedcffc83b479aa3a40260801c5b610200821615610fe6576ff987a7253ac413176f2b074cf7815e540260801c5b610400821615611006576ff3392b0822b70005940c7a398e4b70f30260801c5b610800821615611026576fe7159475a2c29b7443b29c7fa6e889d90260801c5b611000821615611046576fd097f3bdfd2022b8845ad8f792aa58250260801c5b612000821615611066576fa9f746462d870fdf8a65dc1f90e061e50260801c5b614000821615611086576f70d869a156d2a1b890bb3df62baf32f70260801c5b6180008216156110a6576f31be135f97d08fd981231505542fcfa60260801c5b620100008216156110c7576f09aa508b5b7a84e1c677de54f3e99bc90260801c5b620200008216156110e7576e5d6af8dedb81196699c329225ee6040260801c5b62040000821615611106576d2216e584f5fa1ea926041bedfe980260801c5b62080000821615611123576b048a170391f7dc42444e8fa20260801c5b60008460020b131561113e57806000198161113a57fe5b0490505b640100000000810615611152576001611155565b60005b60ff16602082901c0192505050919050565b6000826001600160a01b0316846001600160a01b03161115611187579192915b60006111aa856001600160a01b0316856001600160a01b0316600160601b6112c6565b905061088c6111c584838888036001600160a01b03166112c6565b611375565b6000826001600160a01b0316846001600160a01b031611156111ea579192915b61120d826001600160801b03168585036001600160a01b0316600160601b6112c6565b949350505050565b600061126a826040518060400160405280602081526020017f5361666545524332303a206c6f772d6c6576656c2063616c6c206661696c6564815250856001600160a01b03166113909092919063ffffffff16565b8051909150156108715780806020019051602081101561128957600080fd5b50516108715760405162461bcd60e51b815260040180806020018281038252602a8152602001806119c9602a913960400191505060405180910390fd5b60008080600019858709868602925082811090839003039050806112fc57600084116112f157600080fd5b50829004905061075e565b80841161130857600080fd5b6000848688096000868103871696879004966002600389028118808a02820302808a02820302808a02820302808a02820302808a02820302808a02909103029181900381900460010186841190950394909402919094039290920491909117919091029150509392505050565b806001600160801b038116811461138b57600080fd5b919050565b606061120d8484600085856113a4856114b5565b6113f5576040805162461bcd60e51b815260206004820152601d60248201527f416464726573733a2063616c6c20746f206e6f6e2d636f6e7472616374000000604482015290519081900360640190fd5b600080866001600160a01b031685876040518082805190602001908083835b602083106114335780518252601f199092019160209182019101611414565b6001836020036101000a03801982511681845116808217855250505050505090500191505060006040518083038185875af1925050503d8060008114611495576040519150601f19603f3d011682016040523d82523d6000602084013e61149a565b606091505b50915091506114aa8282866114bb565b979650505050505050565b3b151590565b606083156114ca57508161075e565b8251156114da5782518084602001fd5b8160405162461bcd60e51b81526004018080602001828103825283818151815260200191508051906020019080838360005b8381101561152457818101518382015260200161150c565b50505050905090810190601f1680156115515780820380516001836020036101000a031916815260200191505b509250505060405180910390fd5b604080516060810182526000808252602082018190529181019190915290565b8051801515811461138b57600080fd5b805161ffff8116811461138b57600080fd5b6000602082840312156115b2578081fd5b815161075e816119a1565b600080600080600080600060e0888a0312156115d7578283fd5b87356115e2816119a1565b96506020880135955060408801356115f9816119a1565b94506060880135611609816119a1565b93506080880135611619816119b9565b925060a0880135611629816119b9565b915060c088013562ffffff81168114611640578182fd5b8091505092959891949750929550565b600060208284031215611661578081fd5b61075e8261157f565b600080600080600080600060e0888a031215611684578283fd5b875161168f816119a1565b60208901519097506116a0816119b9565b95506116ae6040890161158f565b94506116bc6060890161158f565b93506116ca6080890161158f565b925060a088015160ff811681146116df578283fd5b91506116ed60c0890161157f565b905092959891949750929550565b60006020828403121561170c578081fd5b5051919050565b60008060008060808587031215611728578384fd5b8451935060208501516001600160801b0381168114611745578384fd5b6040860151606090960151949790965092505050565b6001600160a01b03169052565b60020b9052565b62ffffff169052565b6001600160a01b0391909116815260200190565b6001600160a01b0392831681529116602082015260400190565b6001600160a01b03929092168252602082015260400190565b60208082526031908201527f506f736974696f6e2073686f756c6420626520696e2072616e676520746f206360408201527030b636103a3434b990333ab731ba34b7b760791b606082015260800190565b60208082526032908201527f5a6170496e3a3a7a6170496e3a20746f6b656e3020616e6420746f6b656e312060408201527163616e6e6f74206265207468652073616d6560701b606082015260800190565b81516001600160a01b03908116825260208084015182169083015260408084015162ffffff16908301526060808401518216908301526080808401519083015260a0838101519083015260c0808401519083015260e09283015116918101919091526101000190565b6000610160820190506118df82845161175b565b60208301516118f1602084018261175b565b506040830151611904604084018261176f565b5060608301516119176060840182611768565b50608083015161192a6080840182611768565b5060a083015160a083015260c083015160c083015260e083015160e0830152610100808401518184015250610120808401516119688285018261175b565b505061014092830151919092015290565b90815260200190565b9283526001600160a01b03919091166020830152604082015260600190565b6001600160a01b03811681146119b657600080fd5b50565b8060020b81146119b657600080fdfe5361666545524332303a204552433230206f7065726174696f6e20646964206e6f742073756363656564a26469706673582212202425cecc736e6629a15c28ca8507f1582cee875f3934904d069999e6c2a7356064736f6c63430007060033",
  "devdoc": {
    "events": {
      "ZappedIn(address,uint256,address,uint256)": {
        "params": {
          "amountIn": "amount of tokenIn zapped in",
          "positionManager": "address of PositionManager",
          "tokenId": "Id of zapped token",
          "tokenIn": "address of token zapped in"
        }
      }
    },
    "kind": "dev",
    "methods": {
      "zapIn(address,uint256,address,address,int24,int24,uint24)": {
        "params": {
          "amountIn": "amount of input token",
          "fee": "fee tier of the pool",
          "tickLower": "lower bound of desired position",
          "tickUpper": "upper bound of desired position",
          "token0": "address token0 of the pool",
          "token1": "address token1 of the pool",
          "tokenIn": "address of input token"
        },
        "returns": {
          "tokenId": "of minted NFT"
        }
      }
    },
    "version": 1
  },
  "userdoc": {
    "events": {
      "ZappedIn(address,uint256,address,uint256)": {
        "notice": "emitted when a UniswapNFT is zapped in"
      }
    },
    "kind": "user",
    "methods": {
      "zapIn(address,uint256,address,address,int24,int24,uint24)": {
        "notice": "mints a uni NFT with a single input token, the token in input can be different from the two position tokens"
      }
    },
    "version": 1
  },
  "storageLayout": {
    "storage": [],
    "types": null
  }
}